{
  "address": "0xCf7Ed3AccA5a467e9e704C703E8D87F634fB0Fc9",
  "abi": [
    {
      "inputs": [
        {
          "internalType": "contract IVotes",
          "name": "_token",
          "type": "address"
        },
        {
          "internalType": "contract TimelockController",
          "name": "_timelock",
          "type": "address"
        },
        {
          "internalType": "uint256",
          "name": "_votingDelay",
          "type": "uint256"
        },
        {
          "internalType": "uint256",
          "name": "_votingPeriod",
          "type": "uint256"
        },
        {
          "internalType": "uint256",
          "name": "_votesQuorumFraction",
          "type": "uint256"
        }
      ],
      "stateMutability": "nonpayable",
      "type": "constructor"
    },
    {
      "inputs": [],
      "name": "Empty",
      "type": "error"
    },
    {
      "inputs": [],
      "name": "InvalidShortString",
      "type": "error"
    },
    {
      "inputs": [
        {
          "internalType": "string",
          "name": "str",
          "type": "string"
        }
      ],
      "name": "StringTooLong",
      "type": "error"
    },
    {
      "anonymous": false,
      "inputs": [],
      "name": "EIP712DomainChanged",
      "type": "event"
    },
    {
      "anonymous": false,
      "inputs": [
        {
          "indexed": false,
          "internalType": "uint256",
          "name": "proposalId",
          "type": "uint256"
        }
      ],
      "name": "ProposalCanceled",
      "type": "event"
    },
    {
      "anonymous": false,
      "inputs": [
        {
          "indexed": false,
          "internalType": "uint256",
          "name": "proposalId",
          "type": "uint256"
        },
        {
          "indexed": false,
          "internalType": "address",
          "name": "proposer",
          "type": "address"
        },
        {
          "indexed": false,
          "internalType": "address[]",
          "name": "targets",
          "type": "address[]"
        },
        {
          "indexed": false,
          "internalType": "uint256[]",
          "name": "values",
          "type": "uint256[]"
        },
        {
          "indexed": false,
          "internalType": "string[]",
          "name": "signatures",
          "type": "string[]"
        },
        {
          "indexed": false,
          "internalType": "bytes[]",
          "name": "calldatas",
          "type": "bytes[]"
        },
        {
          "indexed": false,
          "internalType": "uint256",
          "name": "voteStart",
          "type": "uint256"
        },
        {
          "indexed": false,
          "internalType": "uint256",
          "name": "voteEnd",
          "type": "uint256"
        },
        {
          "indexed": false,
          "internalType": "string",
          "name": "description",
          "type": "string"
        }
      ],
      "name": "ProposalCreated",
      "type": "event"
    },
    {
      "anonymous": false,
      "inputs": [
        {
          "indexed": false,
          "internalType": "uint256",
          "name": "proposalId",
          "type": "uint256"
        }
      ],
      "name": "ProposalExecuted",
      "type": "event"
    },
    {
      "anonymous": false,
      "inputs": [
        {
          "indexed": false,
          "internalType": "uint256",
          "name": "proposalId",
          "type": "uint256"
        },
        {
          "indexed": false,
          "internalType": "uint256",
          "name": "eta",
          "type": "uint256"
        }
      ],
      "name": "ProposalQueued",
      "type": "event"
    },
    {
      "anonymous": false,
      "inputs": [
        {
          "indexed": false,
          "internalType": "uint256",
          "name": "oldProposalThreshold",
          "type": "uint256"
        },
        {
          "indexed": false,
          "internalType": "uint256",
          "name": "newProposalThreshold",
          "type": "uint256"
        }
      ],
      "name": "ProposalThresholdSet",
      "type": "event"
    },
    {
      "anonymous": false,
      "inputs": [
        {
          "indexed": false,
          "internalType": "uint256",
          "name": "oldQuorumNumerator",
          "type": "uint256"
        },
        {
          "indexed": false,
          "internalType": "uint256",
          "name": "newQuorumNumerator",
          "type": "uint256"
        }
      ],
      "name": "QuorumNumeratorUpdated",
      "type": "event"
    },
    {
      "anonymous": false,
      "inputs": [
        {
          "indexed": false,
          "internalType": "address",
          "name": "oldTimelock",
          "type": "address"
        },
        {
          "indexed": false,
          "internalType": "address",
          "name": "newTimelock",
          "type": "address"
        }
      ],
      "name": "TimelockChange",
      "type": "event"
    },
    {
      "anonymous": false,
      "inputs": [
        {
          "indexed": true,
          "internalType": "address",
          "name": "voter",
          "type": "address"
        },
        {
          "indexed": false,
          "internalType": "uint256",
          "name": "proposalId",
          "type": "uint256"
        },
        {
          "indexed": false,
          "internalType": "uint8",
          "name": "support",
          "type": "uint8"
        },
        {
          "indexed": false,
          "internalType": "uint256",
          "name": "weight",
          "type": "uint256"
        },
        {
          "indexed": false,
          "internalType": "string",
          "name": "reason",
          "type": "string"
        }
      ],
      "name": "VoteCast",
      "type": "event"
    },
    {
      "anonymous": false,
      "inputs": [
        {
          "indexed": true,
          "internalType": "address",
          "name": "voter",
          "type": "address"
        },
        {
          "indexed": false,
          "internalType": "uint256",
          "name": "proposalId",
          "type": "uint256"
        },
        {
          "indexed": false,
          "internalType": "uint8",
          "name": "support",
          "type": "uint8"
        },
        {
          "indexed": false,
          "internalType": "uint256",
          "name": "weight",
          "type": "uint256"
        },
        {
          "indexed": false,
          "internalType": "string",
          "name": "reason",
          "type": "string"
        },
        {
          "indexed": false,
          "internalType": "bytes",
          "name": "params",
          "type": "bytes"
        }
      ],
      "name": "VoteCastWithParams",
      "type": "event"
    },
    {
      "anonymous": false,
      "inputs": [
        {
          "indexed": false,
          "internalType": "uint256",
          "name": "oldVotingDelay",
          "type": "uint256"
        },
        {
          "indexed": false,
          "internalType": "uint256",
          "name": "newVotingDelay",
          "type": "uint256"
        }
      ],
      "name": "VotingDelaySet",
      "type": "event"
    },
    {
      "anonymous": false,
      "inputs": [
        {
          "indexed": false,
          "internalType": "uint256",
          "name": "oldVotingPeriod",
          "type": "uint256"
        },
        {
          "indexed": false,
          "internalType": "uint256",
          "name": "newVotingPeriod",
          "type": "uint256"
        }
      ],
      "name": "VotingPeriodSet",
      "type": "event"
    },
    {
      "inputs": [],
      "name": "BALLOT_TYPEHASH",
      "outputs": [
        {
          "internalType": "bytes32",
          "name": "",
          "type": "bytes32"
        }
      ],
      "stateMutability": "view",
      "type": "function"
    },
    {
      "inputs": [],
      "name": "CLOCK_MODE",
      "outputs": [
        {
          "internalType": "string",
          "name": "",
          "type": "string"
        }
      ],
      "stateMutability": "view",
      "type": "function"
    },
    {
      "inputs": [],
      "name": "COUNTING_MODE",
      "outputs": [
        {
          "internalType": "string",
          "name": "",
          "type": "string"
        }
      ],
      "stateMutability": "pure",
      "type": "function"
    },
    {
      "inputs": [],
      "name": "EXTENDED_BALLOT_TYPEHASH",
      "outputs": [
        {
          "internalType": "bytes32",
          "name": "",
          "type": "bytes32"
        }
      ],
      "stateMutability": "view",
      "type": "function"
    },
    {
      "inputs": [
        {
          "internalType": "address[]",
          "name": "targets",
          "type": "address[]"
        },
        {
          "internalType": "uint256[]",
          "name": "values",
          "type": "uint256[]"
        },
        {
          "internalType": "bytes[]",
          "name": "calldatas",
          "type": "bytes[]"
        },
        {
          "internalType": "bytes32",
          "name": "descriptionHash",
          "type": "bytes32"
        }
      ],
      "name": "cancel",
      "outputs": [
        {
          "internalType": "uint256",
          "name": "",
          "type": "uint256"
        }
      ],
      "stateMutability": "nonpayable",
      "type": "function"
    },
    {
      "inputs": [
        {
          "internalType": "uint256",
          "name": "proposalId",
          "type": "uint256"
        },
        {
          "internalType": "uint8",
          "name": "support",
          "type": "uint8"
        }
      ],
      "name": "castVote",
      "outputs": [
        {
          "internalType": "uint256",
          "name": "",
          "type": "uint256"
        }
      ],
      "stateMutability": "nonpayable",
      "type": "function"
    },
    {
      "inputs": [
        {
          "internalType": "uint256",
          "name": "proposalId",
          "type": "uint256"
        },
        {
          "internalType": "uint8",
          "name": "support",
          "type": "uint8"
        },
        {
          "internalType": "uint8",
          "name": "v",
          "type": "uint8"
        },
        {
          "internalType": "bytes32",
          "name": "r",
          "type": "bytes32"
        },
        {
          "internalType": "bytes32",
          "name": "s",
          "type": "bytes32"
        }
      ],
      "name": "castVoteBySig",
      "outputs": [
        {
          "internalType": "uint256",
          "name": "",
          "type": "uint256"
        }
      ],
      "stateMutability": "nonpayable",
      "type": "function"
    },
    {
      "inputs": [
        {
          "internalType": "uint256",
          "name": "proposalId",
          "type": "uint256"
        },
        {
          "internalType": "uint8",
          "name": "support",
          "type": "uint8"
        },
        {
          "internalType": "string",
          "name": "reason",
          "type": "string"
        }
      ],
      "name": "castVoteWithReason",
      "outputs": [
        {
          "internalType": "uint256",
          "name": "",
          "type": "uint256"
        }
      ],
      "stateMutability": "nonpayable",
      "type": "function"
    },
    {
      "inputs": [
        {
          "internalType": "uint256",
          "name": "proposalId",
          "type": "uint256"
        },
        {
          "internalType": "uint8",
          "name": "support",
          "type": "uint8"
        },
        {
          "internalType": "string",
          "name": "reason",
          "type": "string"
        },
        {
          "internalType": "bytes",
          "name": "params",
          "type": "bytes"
        }
      ],
      "name": "castVoteWithReasonAndParams",
      "outputs": [
        {
          "internalType": "uint256",
          "name": "",
          "type": "uint256"
        }
      ],
      "stateMutability": "nonpayable",
      "type": "function"
    },
    {
      "inputs": [
        {
          "internalType": "uint256",
          "name": "proposalId",
          "type": "uint256"
        },
        {
          "internalType": "uint8",
          "name": "support",
          "type": "uint8"
        },
        {
          "internalType": "string",
          "name": "reason",
          "type": "string"
        },
        {
          "internalType": "bytes",
          "name": "params",
          "type": "bytes"
        },
        {
          "internalType": "uint8",
          "name": "v",
          "type": "uint8"
        },
        {
          "internalType": "bytes32",
          "name": "r",
          "type": "bytes32"
        },
        {
          "internalType": "bytes32",
          "name": "s",
          "type": "bytes32"
        }
      ],
      "name": "castVoteWithReasonAndParamsBySig",
      "outputs": [
        {
          "internalType": "uint256",
          "name": "",
          "type": "uint256"
        }
      ],
      "stateMutability": "nonpayable",
      "type": "function"
    },
    {
      "inputs": [],
      "name": "clock",
      "outputs": [
        {
          "internalType": "uint48",
          "name": "",
          "type": "uint48"
        }
      ],
      "stateMutability": "view",
      "type": "function"
    },
    {
      "inputs": [],
      "name": "eip712Domain",
      "outputs": [
        {
          "internalType": "bytes1",
          "name": "fields",
          "type": "bytes1"
        },
        {
          "internalType": "string",
          "name": "name",
          "type": "string"
        },
        {
          "internalType": "string",
          "name": "version",
          "type": "string"
        },
        {
          "internalType": "uint256",
          "name": "chainId",
          "type": "uint256"
        },
        {
          "internalType": "address",
          "name": "verifyingContract",
          "type": "address"
        },
        {
          "internalType": "bytes32",
          "name": "salt",
          "type": "bytes32"
        },
        {
          "internalType": "uint256[]",
          "name": "extensions",
          "type": "uint256[]"
        }
      ],
      "stateMutability": "view",
      "type": "function"
    },
    {
      "inputs": [
        {
          "internalType": "address[]",
          "name": "targets",
          "type": "address[]"
        },
        {
          "internalType": "uint256[]",
          "name": "values",
          "type": "uint256[]"
        },
        {
          "internalType": "bytes[]",
          "name": "calldatas",
          "type": "bytes[]"
        },
        {
          "internalType": "bytes32",
          "name": "descriptionHash",
          "type": "bytes32"
        }
      ],
      "name": "execute",
      "outputs": [
        {
          "internalType": "uint256",
          "name": "",
          "type": "uint256"
        }
      ],
      "stateMutability": "payable",
      "type": "function"
    },
    {
      "inputs": [
        {
          "internalType": "address",
          "name": "account",
          "type": "address"
        },
        {
          "internalType": "uint256",
          "name": "timepoint",
          "type": "uint256"
        }
      ],
      "name": "getVotes",
      "outputs": [
        {
          "internalType": "uint256",
          "name": "",
          "type": "uint256"
        }
      ],
      "stateMutability": "view",
      "type": "function"
    },
    {
      "inputs": [
        {
          "internalType": "address",
          "name": "account",
          "type": "address"
        },
        {
          "internalType": "uint256",
          "name": "timepoint",
          "type": "uint256"
        },
        {
          "internalType": "bytes",
          "name": "params",
          "type": "bytes"
        }
      ],
      "name": "getVotesWithParams",
      "outputs": [
        {
          "internalType": "uint256",
          "name": "",
          "type": "uint256"
        }
      ],
      "stateMutability": "view",
      "type": "function"
    },
    {
      "inputs": [
        {
          "internalType": "uint256",
          "name": "proposalId",
          "type": "uint256"
        },
        {
          "internalType": "address",
          "name": "account",
          "type": "address"
        }
      ],
      "name": "hasVoted",
      "outputs": [
        {
          "internalType": "bool",
          "name": "",
          "type": "bool"
        }
      ],
      "stateMutability": "view",
      "type": "function"
    },
    {
      "inputs": [
        {
          "internalType": "address[]",
          "name": "targets",
          "type": "address[]"
        },
        {
          "internalType": "uint256[]",
          "name": "values",
          "type": "uint256[]"
        },
        {
          "internalType": "bytes[]",
          "name": "calldatas",
          "type": "bytes[]"
        },
        {
          "internalType": "bytes32",
          "name": "descriptionHash",
          "type": "bytes32"
        }
      ],
      "name": "hashProposal",
      "outputs": [
        {
          "internalType": "uint256",
          "name": "",
          "type": "uint256"
        }
      ],
      "stateMutability": "pure",
      "type": "function"
    },
    {
      "inputs": [],
      "name": "name",
      "outputs": [
        {
          "internalType": "string",
          "name": "",
          "type": "string"
        }
      ],
      "stateMutability": "view",
      "type": "function"
    },
    {
      "inputs": [
        {
          "internalType": "address",
          "name": "",
          "type": "address"
        },
        {
          "internalType": "address",
          "name": "",
          "type": "address"
        },
        {
          "internalType": "uint256[]",
          "name": "",
          "type": "uint256[]"
        },
        {
          "internalType": "uint256[]",
          "name": "",
          "type": "uint256[]"
        },
        {
          "internalType": "bytes",
          "name": "",
          "type": "bytes"
        }
      ],
      "name": "onERC1155BatchReceived",
      "outputs": [
        {
          "internalType": "bytes4",
          "name": "",
          "type": "bytes4"
        }
      ],
      "stateMutability": "nonpayable",
      "type": "function"
    },
    {
      "inputs": [
        {
          "internalType": "address",
          "name": "",
          "type": "address"
        },
        {
          "internalType": "address",
          "name": "",
          "type": "address"
        },
        {
          "internalType": "uint256",
          "name": "",
          "type": "uint256"
        },
        {
          "internalType": "uint256",
          "name": "",
          "type": "uint256"
        },
        {
          "internalType": "bytes",
          "name": "",
          "type": "bytes"
        }
      ],
      "name": "onERC1155Received",
      "outputs": [
        {
          "internalType": "bytes4",
          "name": "",
          "type": "bytes4"
        }
      ],
      "stateMutability": "nonpayable",
      "type": "function"
    },
    {
      "inputs": [
        {
          "internalType": "address",
          "name": "",
          "type": "address"
        },
        {
          "internalType": "address",
          "name": "",
          "type": "address"
        },
        {
          "internalType": "uint256",
          "name": "",
          "type": "uint256"
        },
        {
          "internalType": "bytes",
          "name": "",
          "type": "bytes"
        }
      ],
      "name": "onERC721Received",
      "outputs": [
        {
          "internalType": "bytes4",
          "name": "",
          "type": "bytes4"
        }
      ],
      "stateMutability": "nonpayable",
      "type": "function"
    },
    {
      "inputs": [
        {
          "internalType": "uint256",
          "name": "proposalId",
          "type": "uint256"
        }
      ],
      "name": "proposalDeadline",
      "outputs": [
        {
          "internalType": "uint256",
          "name": "",
          "type": "uint256"
        }
      ],
      "stateMutability": "view",
      "type": "function"
    },
    {
      "inputs": [
        {
          "internalType": "uint256",
          "name": "proposalId",
          "type": "uint256"
        }
      ],
      "name": "proposalEta",
      "outputs": [
        {
          "internalType": "uint256",
          "name": "",
          "type": "uint256"
        }
      ],
      "stateMutability": "view",
      "type": "function"
    },
    {
      "inputs": [
        {
          "internalType": "uint256",
          "name": "proposalId",
          "type": "uint256"
        }
      ],
      "name": "proposalProposer",
      "outputs": [
        {
          "internalType": "address",
          "name": "",
          "type": "address"
        }
      ],
      "stateMutability": "view",
      "type": "function"
    },
    {
      "inputs": [
        {
          "internalType": "uint256",
          "name": "proposalId",
          "type": "uint256"
        }
      ],
      "name": "proposalSnapshot",
      "outputs": [
        {
          "internalType": "uint256",
          "name": "",
          "type": "uint256"
        }
      ],
      "stateMutability": "view",
      "type": "function"
    },
    {
      "inputs": [],
      "name": "proposalThreshold",
      "outputs": [
        {
          "internalType": "uint256",
          "name": "",
          "type": "uint256"
        }
      ],
      "stateMutability": "view",
      "type": "function"
    },
    {
      "inputs": [
        {
          "internalType": "uint256",
          "name": "proposalId",
          "type": "uint256"
        }
      ],
      "name": "proposalVotes",
      "outputs": [
        {
          "internalType": "uint256",
          "name": "againstVotes",
          "type": "uint256"
        },
        {
          "internalType": "uint256",
          "name": "forVotes",
          "type": "uint256"
        },
        {
          "internalType": "uint256",
          "name": "abstainVotes",
          "type": "uint256"
        }
      ],
      "stateMutability": "view",
      "type": "function"
    },
    {
      "inputs": [
        {
          "internalType": "address[]",
          "name": "targets",
          "type": "address[]"
        },
        {
          "internalType": "uint256[]",
          "name": "values",
          "type": "uint256[]"
        },
        {
          "internalType": "bytes[]",
          "name": "calldatas",
          "type": "bytes[]"
        },
        {
          "internalType": "string",
          "name": "description",
          "type": "string"
        }
      ],
      "name": "propose",
      "outputs": [
        {
          "internalType": "uint256",
          "name": "",
          "type": "uint256"
        }
      ],
      "stateMutability": "nonpayable",
      "type": "function"
    },
    {
      "inputs": [
        {
          "internalType": "address[]",
          "name": "targets",
          "type": "address[]"
        },
        {
          "internalType": "uint256[]",
          "name": "values",
          "type": "uint256[]"
        },
        {
          "internalType": "bytes[]",
          "name": "calldatas",
          "type": "bytes[]"
        },
        {
          "internalType": "bytes32",
          "name": "descriptionHash",
          "type": "bytes32"
        }
      ],
      "name": "queue",
      "outputs": [
        {
          "internalType": "uint256",
          "name": "",
          "type": "uint256"
        }
      ],
      "stateMutability": "nonpayable",
      "type": "function"
    },
    {
      "inputs": [
        {
          "internalType": "uint256",
          "name": "blockNumber",
          "type": "uint256"
        }
      ],
      "name": "quorum",
      "outputs": [
        {
          "internalType": "uint256",
          "name": "",
          "type": "uint256"
        }
      ],
      "stateMutability": "view",
      "type": "function"
    },
    {
      "inputs": [],
      "name": "quorumDenominator",
      "outputs": [
        {
          "internalType": "uint256",
          "name": "",
          "type": "uint256"
        }
      ],
      "stateMutability": "view",
      "type": "function"
    },
    {
      "inputs": [
        {
          "internalType": "uint256",
          "name": "timepoint",
          "type": "uint256"
        }
      ],
      "name": "quorumNumerator",
      "outputs": [
        {
          "internalType": "uint256",
          "name": "",
          "type": "uint256"
        }
      ],
      "stateMutability": "view",
      "type": "function"
    },
    {
      "inputs": [],
      "name": "quorumNumerator",
      "outputs": [
        {
          "internalType": "uint256",
          "name": "",
          "type": "uint256"
        }
      ],
      "stateMutability": "view",
      "type": "function"
    },
    {
      "inputs": [
        {
          "internalType": "address",
          "name": "target",
          "type": "address"
        },
        {
          "internalType": "uint256",
          "name": "value",
          "type": "uint256"
        },
        {
          "internalType": "bytes",
          "name": "data",
          "type": "bytes"
        }
      ],
      "name": "relay",
      "outputs": [],
      "stateMutability": "payable",
      "type": "function"
    },
    {
      "inputs": [
        {
          "internalType": "uint256",
          "name": "newProposalThreshold",
          "type": "uint256"
        }
      ],
      "name": "setProposalThreshold",
      "outputs": [],
      "stateMutability": "nonpayable",
      "type": "function"
    },
    {
      "inputs": [
        {
          "internalType": "uint256",
          "name": "newVotingDelay",
          "type": "uint256"
        }
      ],
      "name": "setVotingDelay",
      "outputs": [],
      "stateMutability": "nonpayable",
      "type": "function"
    },
    {
      "inputs": [
        {
          "internalType": "uint256",
          "name": "newVotingPeriod",
          "type": "uint256"
        }
      ],
      "name": "setVotingPeriod",
      "outputs": [],
      "stateMutability": "nonpayable",
      "type": "function"
    },
    {
      "inputs": [
        {
          "internalType": "uint256",
          "name": "proposalId",
          "type": "uint256"
        }
      ],
      "name": "state",
      "outputs": [
        {
          "internalType": "enum IGovernor.ProposalState",
          "name": "",
          "type": "uint8"
        }
      ],
      "stateMutability": "view",
      "type": "function"
    },
    {
      "inputs": [
        {
          "internalType": "bytes4",
          "name": "interfaceId",
          "type": "bytes4"
        }
      ],
      "name": "supportsInterface",
      "outputs": [
        {
          "internalType": "bool",
          "name": "",
          "type": "bool"
        }
      ],
      "stateMutability": "view",
      "type": "function"
    },
    {
      "inputs": [],
      "name": "timelock",
      "outputs": [
        {
          "internalType": "address",
          "name": "",
          "type": "address"
        }
      ],
      "stateMutability": "view",
      "type": "function"
    },
    {
      "inputs": [],
      "name": "token",
      "outputs": [
        {
          "internalType": "contract IERC5805",
          "name": "",
          "type": "address"
        }
      ],
      "stateMutability": "view",
      "type": "function"
    },
    {
      "inputs": [
        {
          "internalType": "uint256",
          "name": "newQuorumNumerator",
          "type": "uint256"
        }
      ],
      "name": "updateQuorumNumerator",
      "outputs": [],
      "stateMutability": "nonpayable",
      "type": "function"
    },
    {
      "inputs": [
        {
          "internalType": "contract TimelockController",
          "name": "newTimelock",
          "type": "address"
        }
      ],
      "name": "updateTimelock",
      "outputs": [],
      "stateMutability": "nonpayable",
      "type": "function"
    },
    {
      "inputs": [],
      "name": "version",
      "outputs": [
        {
          "internalType": "string",
          "name": "",
          "type": "string"
        }
      ],
      "stateMutability": "view",
      "type": "function"
    },
    {
      "inputs": [],
      "name": "votingDelay",
      "outputs": [
        {
          "internalType": "uint256",
          "name": "",
          "type": "uint256"
        }
      ],
      "stateMutability": "view",
      "type": "function"
    },
    {
      "inputs": [],
      "name": "votingPeriod",
      "outputs": [
        {
          "internalType": "uint256",
          "name": "",
          "type": "uint256"
        }
      ],
      "stateMutability": "view",
      "type": "function"
    },
    {
      "stateMutability": "payable",
      "type": "receive"
    }
  ],
  "transactionHash": "0x647873dae7b31a6be8d9b24b944373ddffc77c4ab4e495d8264e9392a68d4c92",
  "args": [
    "0x5FbDB2315678afecb367f032d93F642f64180aa3",
    "0x9fE46736679d2D9a65F0992F2272dE9f3c7fa6e0",
    1,
    5,
    4
  ],
  "numDeployments": 1,
  "solcInputHash": "d80268844cd804a1dbdf9666f303cc93",
  "bytecode": "0x6101806040523480156200001257600080fd5b50604051620096f2380380620096f2833981810160405281019062000038919062000f82565b838186858560006040518060400160405280600b81526020017f50616d436f6e74726163740000000000000000000000000000000000000000008152508062000086620001f560201b60201c565b620000a16000836200023260201b620024281790919060201c565b6101208181525050620000c46001826200023260201b620024281790919060201c565b6101408181525050818051906020012060e08181525050808051906020012061010081815250504660a08181525050620001036200029660201b60201c565b608081815250503073ffffffffffffffffffffffffffffffffffffffff1660c08173ffffffffffffffffffffffffffffffffffffffff1681525050505080600290805190602001906200015892919062000dc0565b50506200016b83620002f360201b60201c565b6200017c826200033a60201b60201c565b6200018d81620003c760201b60201c565b5050508073ffffffffffffffffffffffffffffffffffffffff166101608173ffffffffffffffffffffffffffffffffffffffff168152505050620001d7816200040e60201b60201c565b50620001e9816200063060201b60201c565b50505050505062001749565b60606040518060400160405280600181526020017f3100000000000000000000000000000000000000000000000000000000000000815250905090565b600060208351101562000258576200025083620006d160201b60201c565b905062000290565b826200026f836200073e60201b620024731760201c565b60000190805190602001906200028792919062000dc0565b5060ff60001b90505b92915050565b60007f8b73c3c69bb8fe3d512ecc4cf759cc79239f7b179b0ffacaa9a75d522b39400f60e051610100514630604051602001620002d895949392919062001047565b60405160208183030381529060405280519060200120905090565b7fc565b045403dc03c2eea82b81a0465edad9e2e7fc4d97e11421c209da93d7a936006548260405162000328929190620010a4565b60405180910390a18060068190555050565b6000811162000380576040517f08c379a0000000000000000000000000000000000000000000000000000000008152600401620003779062001158565b60405180910390fd5b7f7e3f7f0708a84de9203036abaa450dccc85ad5ff52f78c170f3edb55cf5e882860075482604051620003b5929190620010a4565b60405180910390a18060078190555050565b7fccb45da8d5717e6c4544694297c4ba5cf151d455c9bb0ed4fc7a38411bc0546160085482604051620003fc929190620010a4565b60405180910390a18060088190555050565b6200041e6200074860201b60201c565b81111562000463576040517f08c379a00000000000000000000000000000000000000000000000000000000081526004016200045a9062001216565b60405180910390fd5b6000620004756200075160201b60201c565b9050600081141580156200049157506000600b60000180549050145b156200059157600b6000016040518060400160405280600063ffffffff168152602001620004ca84620007a760201b6200247d1760201c565b7bffffffffffffffffffffffffffffffffffffffffffffffffffffffff168152509080600181540180825580915050600190039060005260206000200160009091909190915060008201518160000160006101000a81548163ffffffff021916908363ffffffff16021790555060208201518160000160046101000a8154817bffffffffffffffffffffffffffffffffffffffffffffffffffffffff02191690837bffffffffffffffffffffffffffffffffffffffffffffffffffffffff16021790555050505b620005ef620005c2620005a96200081560201b60201c565b65ffffffffffff16620008c060201b620024e81760201c565b620005d884620007a760201b6200247d1760201c565b600b6200091660201b6200253b179092919060201c565b50507f0553476bf02ef2726e8ce5ced78d63e26e602e4a2257b1f559418e24b4633997818360405162000624929190620010a4565b60405180910390a15050565b7f08f74ea46ef7894f65eabfb5e6e695de773a000b47c529ab559178069b226401600c60009054906101000a900473ffffffffffffffffffffffffffffffffffffffff16826040516200068592919062001238565b60405180910390a180600c60006101000a81548173ffffffffffffffffffffffffffffffffffffffff021916908373ffffffffffffffffffffffffffffffffffffffff16021790555050565b600080829050601f815111156200072157826040517f305a27a9000000000000000000000000000000000000000000000000000000008152600401620007189190620012f8565b60405180910390fd5b8051816200072f906200135b565b60001c1760001b915050919050565b6000819050919050565b60006064905090565b600080600b60000180549050146200079e576200077a600b6200093b60201b620025581760201c565b7bffffffffffffffffffffffffffffffffffffffffffffffffffffffff16620007a2565b600a545b905090565b60007bffffffffffffffffffffffffffffffffffffffffffffffffffffffff80168211156200080d576040517f08c379a0000000000000000000000000000000000000000000000000000000008152600401620008049062001441565b60405180910390fd5b819050919050565b60006101605173ffffffffffffffffffffffffffffffffffffffff166391ddadf46040518163ffffffff1660e01b815260040160206040518083038186803b1580156200086157600080fd5b505afa9250505080156200089557506040513d601f19601f82011682018060405250810190620008929190620014a6565b60015b620008b857620008b043620009b160201b620025c21760201c565b9050620008bd565b809150505b90565b600063ffffffff80168211156200090e576040517f08c379a000000000000000000000000000000000000000000000000000000000815260040162000905906200154e565b60405180910390fd5b819050919050565b6000806200092f85600001858562000a0960201b60201c565b91509150935093915050565b6000808260000180549050905060008114620009a65762000974836000016001836200096891906200159f565b62000dab60201b60201c565b60000160049054906101000a90047bffffffffffffffffffffffffffffffffffffffffffffffffffffffff16620009a9565b60005b915050919050565b600065ffffffffffff801682111562000a01576040517f08c379a0000000000000000000000000000000000000000000000000000000008152600401620009f89062001650565b60405180910390fd5b819050919050565b600080600085805490509050600081111562000cbb57600062000a418760018462000a3591906200159f565b62000dab60201b60201c565b6040518060400160405290816000820160009054906101000a900463ffffffff1663ffffffff1663ffffffff1681526020016000820160049054906101000a90047bffffffffffffffffffffffffffffffffffffffffffffffffffffffff167bffffffffffffffffffffffffffffffffffffffffffffffffffffffff167bffffffffffffffffffffffffffffffffffffffffffffffffffffffff168152505090508563ffffffff16816000015163ffffffff16111562000b38576040517f08c379a000000000000000000000000000000000000000000000000000000000815260040162000b2f90620016c2565b60405180910390fd5b8563ffffffff16816000015163ffffffff16141562000bc9578462000b728860018562000b6691906200159f565b62000dab60201b60201c565b60000160046101000a8154817bffffffffffffffffffffffffffffffffffffffffffffffffffffffff02191690837bffffffffffffffffffffffffffffffffffffffffffffffffffffffff16021790555062000ca9565b8660405180604001604052808863ffffffff168152602001877bffffffffffffffffffffffffffffffffffffffffffffffffffffffff168152509080600181540180825580915050600190039060005260206000200160009091909190915060008201518160000160006101000a81548163ffffffff021916908363ffffffff16021790555060208201518160000160046101000a8154817bffffffffffffffffffffffffffffffffffffffffffffffffffffffff02191690837bffffffffffffffffffffffffffffffffffffffffffffffffffffffff16021790555050505b80602001518593509350505062000da3565b8560405180604001604052808763ffffffff168152602001867bffffffffffffffffffffffffffffffffffffffffffffffffffffffff168152509080600181540180825580915050600190039060005260206000200160009091909190915060008201518160000160006101000a81548163ffffffff021916908363ffffffff16021790555060208201518160000160046101000a8154817bffffffffffffffffffffffffffffffffffffffffffffffffffffffff02191690837bffffffffffffffffffffffffffffffffffffffffffffffffffffffff160217905550505060008492509250505b935093915050565b60008260005281602060002001905092915050565b82805462000dce9062001713565b90600052602060002090601f01602090048101928262000df2576000855562000e3e565b82601f1062000e0d57805160ff191683800117855562000e3e565b8280016001018555821562000e3e579182015b8281111562000e3d57825182559160200191906001019062000e20565b5b50905062000e4d919062000e51565b5090565b5b8082111562000e6c57600081600090555060010162000e52565b5090565b600080fd5b600073ffffffffffffffffffffffffffffffffffffffff82169050919050565b600062000ea28262000e75565b9050919050565b600062000eb68262000e95565b9050919050565b62000ec88162000ea9565b811462000ed457600080fd5b50565b60008151905062000ee88162000ebd565b92915050565b600062000efb8262000e75565b9050919050565b600062000f0f8262000eee565b9050919050565b62000f218162000f02565b811462000f2d57600080fd5b50565b60008151905062000f418162000f16565b92915050565b6000819050919050565b62000f5c8162000f47565b811462000f6857600080fd5b50565b60008151905062000f7c8162000f51565b92915050565b600080600080600060a0868803121562000fa15762000fa062000e70565b5b600062000fb18882890162000ed7565b955050602062000fc48882890162000f30565b945050604062000fd78882890162000f6b565b935050606062000fea8882890162000f6b565b925050608062000ffd8882890162000f6b565b9150509295509295909350565b6000819050919050565b6200101f816200100a565b82525050565b620010308162000f47565b82525050565b620010418162000e95565b82525050565b600060a0820190506200105e600083018862001014565b6200106d602083018762001014565b6200107c604083018662001014565b6200108b606083018562001025565b6200109a608083018462001036565b9695505050505050565b6000604082019050620010bb600083018562001025565b620010ca602083018462001025565b9392505050565b600082825260208201905092915050565b7f476f7665726e6f7253657474696e67733a20766f74696e6720706572696f642060008201527f746f6f206c6f7700000000000000000000000000000000000000000000000000602082015250565b600062001140602783620010d1565b91506200114d82620010e2565b604082019050919050565b60006020820190508181036000830152620011738162001131565b9050919050565b7f476f7665726e6f72566f74657351756f72756d4672616374696f6e3a2071756f60008201527f72756d4e756d657261746f72206f7665722071756f72756d44656e6f6d696e6160208201527f746f720000000000000000000000000000000000000000000000000000000000604082015250565b6000620011fe604383620010d1565b91506200120b826200117a565b606082019050919050565b600060208201905081810360008301526200123181620011ef565b9050919050565b60006040820190506200124f600083018562001036565b6200125e602083018462001036565b9392505050565b600081519050919050565b60005b838110156200129057808201518184015260208101905062001273565b83811115620012a0576000848401525b50505050565b6000601f19601f8301169050919050565b6000620012c48262001265565b620012d08185620010d1565b9350620012e281856020860162001270565b620012ed81620012a6565b840191505092915050565b60006020820190508181036000830152620013148184620012b7565b905092915050565b600081519050919050565b6000819050602082019050919050565b60006200134582516200100a565b80915050919050565b600082821b905092915050565b600062001368826200131c565b82620013748462001327565b9050620013818162001337565b92506020821015620013c457620013bf7fffffffffffffffffffffffffffffffffffffffffffffffffffffffffffffffff836020036008026200134e565b831692505b5050919050565b7f53616665436173743a2076616c756520646f65736e27742066697420696e203260008201527f3234206269747300000000000000000000000000000000000000000000000000602082015250565b600062001429602783620010d1565b91506200143682620013cb565b604082019050919050565b600060208201905081810360008301526200145c816200141a565b9050919050565b600065ffffffffffff82169050919050565b620014808162001463565b81146200148c57600080fd5b50565b600081519050620014a08162001475565b92915050565b600060208284031215620014bf57620014be62000e70565b5b6000620014cf848285016200148f565b91505092915050565b7f53616665436173743a2076616c756520646f65736e27742066697420696e203360008201527f3220626974730000000000000000000000000000000000000000000000000000602082015250565b600062001536602683620010d1565b91506200154382620014d8565b604082019050919050565b60006020820190508181036000830152620015698162001527565b9050919050565b7f4e487b7100000000000000000000000000000000000000000000000000000000600052601160045260246000fd5b6000620015ac8262000f47565b9150620015b98362000f47565b925082821015620015cf57620015ce62001570565b5b828203905092915050565b7f53616665436173743a2076616c756520646f65736e27742066697420696e203460008201527f3820626974730000000000000000000000000000000000000000000000000000602082015250565b600062001638602683620010d1565b91506200164582620015da565b604082019050919050565b600060208201905081810360008301526200166b8162001629565b9050919050565b7f436865636b706f696e743a2064656372656173696e67206b6579730000000000600082015250565b6000620016aa601b83620010d1565b9150620016b78262001672565b602082019050919050565b60006020820190508181036000830152620016dd816200169b565b9050919050565b7f4e487b7100000000000000000000000000000000000000000000000000000000600052602260045260246000fd5b600060028204905060018216806200172c57607f821691505b60208210811415620017435762001742620016e4565b5b50919050565b60805160a05160c05160e05161010051610120516101405161016051617f27620017cb6000396000818161163b01528181611c2301528181612406015281816135c5015261383b01526000611b6401526000611b3001526000614ce601526000614cc501526000613f2101526000613f7701526000613fa00152617f276000f3fe6080604052600436106102815760003560e01c80637b3c71d31161014f578063c01f9e37116100c1578063ea0217cf1161007a578063ea0217cf14610b2c578063eb9019d414610b55578063ece40cc114610b92578063f23a6e6114610bbb578063f8ce560a14610bf8578063fc0c546a14610c35576102fd565b8063c01f9e3714610a15578063c28bc2fa14610a52578063c59057e414610a6e578063d33219b414610aab578063dd4e2ba514610ad6578063deaaa7cc14610b01576102fd565b80639a802a6d116101135780639a802a6d146108df578063a7713a701461091c578063a890c91014610947578063ab58fb8e14610970578063b58131b0146109ad578063bc197c81146109d8576102fd565b80637b3c71d3146107de5780637d5e81e21461081b57806384b0196e1461085857806391ddadf41461088957806397c3d334146108b4576102fd565b80633932abb1116101f3578063544ffc9c116101ac578063544ffc9c1461069457806354fd4d50146106d357806356781388146106fe5780635f398a141461073b57806360c4247f1461077857806370b0f660146107b5576102fd565b80633932abb11461054a5780633bccf4fd146105755780633e4f49e6146105b257806343859632146105ef578063452115d61461062c5780634bf5d7e914610669576102fd565b8063143489d011610245578063143489d0146103fb578063150b7a0214610438578063160cbed7146104755780632656227d146104b25780632d63f693146104e25780632fe3e2611461051f576102fd565b806301ffc9a71461030257806302a251a31461033f578063034201811461036a57806306f3f9e6146103a757806306fdde03146103d0576102fd565b366102fd573073ffffffffffffffffffffffffffffffffffffffff166102a5610c60565b73ffffffffffffffffffffffffffffffffffffffff16146102fb576040517f08c379a00000000000000000000000000000000000000000000000000000000081526004016102f29061520c565b60405180910390fd5b005b600080fd5b34801561030e57600080fd5b5061032960048036038101906103249190615298565b610c6f565b60405161033691906152e0565b60405180910390f35b34801561034b57600080fd5b50610354610c81565b6040516103619190615314565b60405180910390f35b34801561037657600080fd5b50610391600480360381019061038c9190615570565b610c90565b60405161039e9190615314565b60405180910390f35b3480156103b357600080fd5b506103ce60048036038101906103c9919061564e565b610d75565b005b3480156103dc57600080fd5b506103e5610e71565b6040516103f291906156f2565b60405180910390f35b34801561040757600080fd5b50610422600480360381019061041d919061564e565b610f03565b60405161042f9190615755565b60405180910390f35b34801561044457600080fd5b5061045f600480360381019061045a919061579c565b610f43565b60405161046c919061582e565b60405180910390f35b34801561048157600080fd5b5061049c60048036038101906104979190615ab0565b610f57565b6040516104a99190615314565b60405180910390f35b6104cc60048036038101906104c79190615ab0565b61122f565b6040516104d99190615314565b60405180910390f35b3480156104ee57600080fd5b506105096004803603810190610504919061564e565b61137d565b6040516105169190615314565b60405180910390f35b34801561052b57600080fd5b506105346113bb565b6040516105419190615b7a565b60405180910390f35b34801561055657600080fd5b5061055f6113df565b60405161056c9190615314565b60405180910390f35b34801561058157600080fd5b5061059c60048036038101906105979190615b95565b6113ee565b6040516105a99190615314565b60405180910390f35b3480156105be57600080fd5b506105d960048036038101906105d4919061564e565b611478565b6040516105e69190615c87565b60405180910390f35b3480156105fb57600080fd5b5061061660048036038101906106119190615ca2565b61148a565b60405161062391906152e0565b60405180910390f35b34801561063857600080fd5b50610653600480360381019061064e9190615ab0565b6114f5565b6040516106609190615314565b60405180910390f35b34801561067557600080fd5b5061067e611637565b60405161068b91906156f2565b60405180910390f35b3480156106a057600080fd5b506106bb60048036038101906106b6919061564e565b61171e565b6040516106ca93929190615ce2565b60405180910390f35b3480156106df57600080fd5b506106e8611756565b6040516106f591906156f2565b60405180910390f35b34801561070a57600080fd5b5061072560048036038101906107209190615d19565b611793565b6040516107329190615314565b60405180910390f35b34801561074757600080fd5b50610762600480360381019061075d9190615d59565b6117c4565b60405161076f9190615314565b60405180910390f35b34801561078457600080fd5b5061079f600480360381019061079a919061564e565b61182e565b6040516107ac9190615314565b60405180910390f35b3480156107c157600080fd5b506107dc60048036038101906107d7919061564e565b6119a1565b005b3480156107ea57600080fd5b5061080560048036038101906108009190615dfd565b611a9d565b6040516108129190615314565b60405180910390f35b34801561082757600080fd5b50610842600480360381019061083d9190615f12565b611b05565b60405161084f9190615314565b60405180910390f35b34801561086457600080fd5b5061086d611b1d565b60405161088097969594939291906160e2565b60405180910390f35b34801561089557600080fd5b5061089e611c1f565b6040516108ab9190616187565b60405180910390f35b3480156108c057600080fd5b506108c9611cd4565b6040516108d69190615314565b60405180910390f35b3480156108eb57600080fd5b50610906600480360381019061090191906161a2565b611cdd565b6040516109139190615314565b60405180910390f35b34801561092857600080fd5b50610931611cf3565b60405161093e9190615314565b60405180910390f35b34801561095357600080fd5b5061096e60048036038101906109699190616261565b611d3a565b005b34801561097c57600080fd5b506109976004803603810190610992919061564e565b611e36565b6040516109a49190615314565b60405180910390f35b3480156109b957600080fd5b506109c2611f12565b6040516109cf9190615314565b60405180910390f35b3480156109e457600080fd5b506109ff60048036038101906109fa919061628e565b611f21565b604051610a0c919061582e565b60405180910390f35b348015610a2157600080fd5b50610a3c6004803603810190610a37919061564e565b611f36565b604051610a499190615314565b60405180910390f35b610a6c6004803603810190610a6791906163b3565b611f74565b005b348015610a7a57600080fd5b50610a956004803603810190610a909190615ab0565b612102565b604051610aa29190615314565b60405180910390f35b348015610ab757600080fd5b50610ac061213e565b604051610acd9190615755565b60405180910390f35b348015610ae257600080fd5b50610aeb612168565b604051610af891906156f2565b60405180910390f35b348015610b0d57600080fd5b50610b166121a5565b604051610b239190615b7a565b60405180910390f35b348015610b3857600080fd5b50610b536004803603810190610b4e919061564e565b6121c9565b005b348015610b6157600080fd5b50610b7c6004803603810190610b779190616427565b6122c5565b604051610b899190615314565b60405180910390f35b348015610b9e57600080fd5b50610bb96004803603810190610bb4919061564e565b6122e1565b005b348015610bc757600080fd5b50610be26004803603810190610bdd9190616467565b6123dd565b604051610bef919061582e565b60405180910390f35b348015610c0457600080fd5b50610c1f6004803603810190610c1a919061564e565b6123f2565b604051610c2c9190615314565b60405180910390f35b348015610c4157600080fd5b50610c4a612404565b604051610c57919061655d565b60405180910390f35b6000610c6a612617565b905090565b6000610c7a82612641565b9050919050565b6000610c8b6126bb565b905090565b600080610d13610d0b7fb3b3f3b703cd84ce352197dcff232b1b5d3cfb2025ce47cf04742d0651f1af888c8c8c8c604051610ccc9291906165a8565b60405180910390208b80519060200120604051602001610cf09594939291906165d0565b604051602081830303815290604052805190602001206126c5565b8686866126df565b9050610d668a828b8b8b8080601f016020809104026020016040519081016040528093929190818152602001838380828437600081840152601f19601f820116905080830192505050505050508a61270a565b91505098975050505050505050565b610d7d610c60565b73ffffffffffffffffffffffffffffffffffffffff16610d9b612897565b73ffffffffffffffffffffffffffffffffffffffff1614610df1576040517f08c379a0000000000000000000000000000000000000000000000000000000008152600401610de89061666f565b60405180910390fd5b3073ffffffffffffffffffffffffffffffffffffffff16610e10610c60565b73ffffffffffffffffffffffffffffffffffffffff1614610e65576000610e3561289f565b604051610e439291906165a8565b604051809103902090505b80610e5960046128ac565b14610e6357610e4e565b505b610e6e81612988565b50565b606060028054610e80906166be565b80601f0160208091040260200160405190810160405280929190818152602001828054610eac906166be565b8015610ef95780601f10610ece57610100808354040283529160200191610ef9565b820191906000526020600020905b815481529060010190602001808311610edc57829003601f168201915b5050505050905090565b60006003600083815260200190815260200160002060000160089054906101000a900473ffffffffffffffffffffffffffffffffffffffff169050919050565b600063150b7a0260e01b9050949350505050565b600080610f6686868686612102565b905060046007811115610f7c57610f7b615c10565b5b610f8582611478565b6007811115610f9757610f96615c10565b5b14610fd7576040517f08c379a0000000000000000000000000000000000000000000000000000000008152600401610fce90616762565b60405180910390fd5b6000600c60009054906101000a900473ffffffffffffffffffffffffffffffffffffffff1673ffffffffffffffffffffffffffffffffffffffff1663f27a0c926040518163ffffffff1660e01b815260040160206040518083038186803b15801561104157600080fd5b505afa158015611055573d6000803e3d6000fd5b505050506040513d601f19601f820116820180604052508101906110799190616797565b9050600c60009054906101000a900473ffffffffffffffffffffffffffffffffffffffff1673ffffffffffffffffffffffffffffffffffffffff1663b1c5f4278888886000896040518663ffffffff1660e01b81526004016110df9594939291906169e1565b60206040518083038186803b1580156110f757600080fd5b505afa15801561110b573d6000803e3d6000fd5b505050506040513d601f19601f8201168201806040525081019061112f9190616a5e565b600d600084815260200190815260200160002081905550600c60009054906101000a900473ffffffffffffffffffffffffffffffffffffffff1673ffffffffffffffffffffffffffffffffffffffff16638f2a0bb0888888600089876040518763ffffffff1660e01b81526004016111ac96959493929190616a8b565b600060405180830381600087803b1580156111c657600080fd5b505af11580156111da573d6000803e3d6000fd5b505050507f9a2e42fd6722813d69113e7d0079d3d940171428df7373df9c7f7617cfda289282824261120c9190616b30565b60405161121a929190616b86565b60405180910390a18192505050949350505050565b60008061123e86868686612102565b9050600061124b82611478565b90506004600781111561126157611260615c10565b5b81600781111561127457611273615c10565b5b14806112a457506005600781111561128f5761128e615c10565b5b8160078111156112a2576112a1615c10565b5b145b6112e3576040517f08c379a00000000000000000000000000000000000000000000000000000000081526004016112da90616762565b60405180910390fd5b60016003600084815260200190815260200160002060020160006101000a81548160ff0219169083151502179055507f712ae1383f79ac853f8d882153778e0260ef8f03b504e2866e0593e04d2b291f826040516113419190615314565b60405180910390a16113568288888888612b5d565b6113638288888888612c41565b6113708288888888612c55565b8192505050949350505050565b60006003600083815260200190815260200160002060000160009054906101000a900467ffffffffffffffff1667ffffffffffffffff169050919050565b7fb3b3f3b703cd84ce352197dcff232b1b5d3cfb2025ce47cf04742d0651f1af8881565b60006113e9612cb0565b905090565b60008061144f6114477f150214d74d59b7d1e90c73fc22ef3d991dd0a76b046543d4d80ab92d2a50328f898960405160200161142c93929190616baf565b604051602081830303815290604052805190602001206126c5565b8686866126df565b905061146c87828860405180602001604052806000815250612cba565b91505095945050505050565b600061148382612cda565b9050919050565b60006009600084815260200190815260200160002060030160008373ffffffffffffffffffffffffffffffffffffffff1673ffffffffffffffffffffffffffffffffffffffff16815260200190815260200160002060009054906101000a900460ff16905092915050565b60008061150486868686612102565b90506000600781111561151a57611519615c10565b5b61152382611478565b600781111561153557611534615c10565b5b14611575576040517f08c379a000000000000000000000000000000000000000000000000000000000815260040161156c90616c32565b60405180910390fd5b6003600082815260200190815260200160002060000160089054906101000a900473ffffffffffffffffffffffffffffffffffffffff1673ffffffffffffffffffffffffffffffffffffffff166115ca612897565b73ffffffffffffffffffffffffffffffffffffffff1614611620576040517f08c379a000000000000000000000000000000000000000000000000000000000815260040161161790616cc4565b60405180910390fd5b61162c86868686612ecc565b915050949350505050565b60607f000000000000000000000000000000000000000000000000000000000000000073ffffffffffffffffffffffffffffffffffffffff16634bf5d7e96040518163ffffffff1660e01b815260040160006040518083038186803b15801561169f57600080fd5b505afa9250505080156116d557506040513d6000823e3d601f19601f820116820180604052508101906116d29190616d54565b60015b611716576040518060400160405280601d81526020017f6d6f64653d626c6f636b6e756d6265722666726f6d3d64656661756c74000000815250905061171b565b809150505b90565b600080600080600960008681526020019081526020016000209050806000015481600101548260020154935093509350509193909250565b60606040518060400160405280600181526020017f3100000000000000000000000000000000000000000000000000000000000000815250905090565b60008061179e612897565b90506117bb84828560405180602001604052806000815250612cba565b91505092915050565b6000806117cf612897565b905061182287828888888080601f016020809104026020016040519081016040528093929190818152602001838380828437600081840152601f19601f820116905080830192505050505050508761270a565b91505095945050505050565b600080600b600001805490509050600081141561185057600a5491505061199c565b6000600b6000016001836118649190616d9d565b8154811061187557611874616dd1565b5b906000526020600020016040518060400160405290816000820160009054906101000a900463ffffffff1663ffffffff1663ffffffff1681526020016000820160049054906101000a90047bffffffffffffffffffffffffffffffffffffffffffffffffffffffff167bffffffffffffffffffffffffffffffffffffffffffffffffffffffff167bffffffffffffffffffffffffffffffffffffffffffffffffffffffff1681525050905083816000015163ffffffff161161195d5780602001517bffffffffffffffffffffffffffffffffffffffffffffffffffffffff169250505061199c565b611979611969856124e8565b600b612ee490919063ffffffff16565b7bffffffffffffffffffffffffffffffffffffffffffffffffffffffff16925050505b919050565b6119a9610c60565b73ffffffffffffffffffffffffffffffffffffffff166119c7612897565b73ffffffffffffffffffffffffffffffffffffffff1614611a1d576040517f08c379a0000000000000000000000000000000000000000000000000000000008152600401611a149061666f565b60405180910390fd5b3073ffffffffffffffffffffffffffffffffffffffff16611a3c610c60565b73ffffffffffffffffffffffffffffffffffffffff1614611a91576000611a6161289f565b604051611a6f9291906165a8565b604051809103902090505b80611a8560046128ac565b14611a8f57611a7a565b505b611a9a81612fda565b50565b600080611aa8612897565b9050611afa86828787878080601f016020809104026020016040519081016040528093929190818152602001838380828437600081840152601f19601f82011690508083019250505050505050612cba565b915050949350505050565b6000611b138585858561301f565b9050949350505050565b600060608060008060006060611b5d60007f000000000000000000000000000000000000000000000000000000000000000061351190919063ffffffff16565b611b9160017f000000000000000000000000000000000000000000000000000000000000000061351190919063ffffffff16565b46306000801b600067ffffffffffffffff811115611bb257611bb161540f565b5b604051908082528060200260200182016040528015611be05781602001602082028036833780820191505090505b507f0f00000000000000000000000000000000000000000000000000000000000000959493929190965096509650965096509650965090919293949596565b60007f000000000000000000000000000000000000000000000000000000000000000073ffffffffffffffffffffffffffffffffffffffff166391ddadf46040518163ffffffff1660e01b815260040160206040518083038186803b158015611c8757600080fd5b505afa925050508015611cb857506040513d601f19601f82011682018060405250810190611cb59190616e2c565b60015b611ccc57611cc5436125c2565b9050611cd1565b809150505b90565b60006064905090565b6000611cea8484846135c1565b90509392505050565b600080600b6000018054905014611d3157611d0e600b612558565b7bffffffffffffffffffffffffffffffffffffffffffffffffffffffff16611d35565b600a545b905090565b611d42610c60565b73ffffffffffffffffffffffffffffffffffffffff16611d60612897565b73ffffffffffffffffffffffffffffffffffffffff1614611db6576040517f08c379a0000000000000000000000000000000000000000000000000000000008152600401611dad9061666f565b60405180910390fd5b3073ffffffffffffffffffffffffffffffffffffffff16611dd5610c60565b73ffffffffffffffffffffffffffffffffffffffff1614611e2a576000611dfa61289f565b604051611e089291906165a8565b604051809103902090505b80611e1e60046128ac565b14611e2857611e13565b505b611e3381613677565b50565b600080600c60009054906101000a900473ffffffffffffffffffffffffffffffffffffffff1673ffffffffffffffffffffffffffffffffffffffff1663d45c4435600d6000868152602001908152602001600020546040518263ffffffff1660e01b8152600401611ea79190615b7a565b60206040518083038186803b158015611ebf57600080fd5b505afa158015611ed3573d6000803e3d6000fd5b505050506040513d601f19601f82011682018060405250810190611ef79190616797565b905060018114611f075780611f0a565b60005b915050919050565b6000611f1c613716565b905090565b600063bc197c8160e01b905095945050505050565b60006003600083815260200190815260200160002060010160009054906101000a900467ffffffffffffffff1667ffffffffffffffff169050919050565b611f7c610c60565b73ffffffffffffffffffffffffffffffffffffffff16611f9a612897565b73ffffffffffffffffffffffffffffffffffffffff1614611ff0576040517f08c379a0000000000000000000000000000000000000000000000000000000008152600401611fe79061666f565b60405180910390fd5b3073ffffffffffffffffffffffffffffffffffffffff1661200f610c60565b73ffffffffffffffffffffffffffffffffffffffff161461206457600061203461289f565b6040516120429291906165a8565b604051809103902090505b8061205860046128ac565b146120625761204d565b505b6000808573ffffffffffffffffffffffffffffffffffffffff1685858560405161208f9291906165a8565b60006040518083038185875af1925050503d80600081146120cc576040519150601f19603f3d011682016040523d82523d6000602084013e6120d1565b606091505b50915091506120f98282604051806060016040528060288152602001617eca60289139613720565b50505050505050565b60008484848460405160200161211b9493929190616e59565b6040516020818303038152906040528051906020012060001c9050949350505050565b6000600c60009054906101000a900473ffffffffffffffffffffffffffffffffffffffff16905090565b60606040518060400160405280602081526020017f737570706f72743d627261766f2671756f72756d3d666f722c6162737461696e815250905090565b7f150214d74d59b7d1e90c73fc22ef3d991dd0a76b046543d4d80ab92d2a50328f81565b6121d1610c60565b73ffffffffffffffffffffffffffffffffffffffff166121ef612897565b73ffffffffffffffffffffffffffffffffffffffff1614612245576040517f08c379a000000000000000000000000000000000000000000000000000000000815260040161223c9061666f565b60405180910390fd5b3073ffffffffffffffffffffffffffffffffffffffff16612264610c60565b73ffffffffffffffffffffffffffffffffffffffff16146122b957600061228961289f565b6040516122979291906165a8565b604051809103902090505b806122ad60046128ac565b146122b7576122a2565b505b6122c281613742565b50565b60006122d983836122d46137ca565b6135c1565b905092915050565b6122e9610c60565b73ffffffffffffffffffffffffffffffffffffffff16612307612897565b73ffffffffffffffffffffffffffffffffffffffff161461235d576040517f08c379a00000000000000000000000000000000000000000000000000000000081526004016123549061666f565b60405180910390fd5b3073ffffffffffffffffffffffffffffffffffffffff1661237c610c60565b73ffffffffffffffffffffffffffffffffffffffff16146123d15760006123a161289f565b6040516123af9291906165a8565b604051809103902090505b806123c560046128ac565b146123cf576123ba565b505b6123da816137e1565b50565b600063f23a6e6160e01b905095945050505050565b60006123fd82613826565b9050919050565b7f000000000000000000000000000000000000000000000000000000000000000081565b60006020835110156124445761243d836138fd565b905061246d565b8261244e83612473565b600001908051906020019061246492919061510c565b5060ff60001b90505b92915050565b6000819050919050565b60007bffffffffffffffffffffffffffffffffffffffffffffffffffffffff80168211156124e0576040517f08c379a00000000000000000000000000000000000000000000000000000000081526004016124d790616f25565b60405180910390fd5b819050919050565b600063ffffffff8016821115612533576040517f08c379a000000000000000000000000000000000000000000000000000000000815260040161252a90616fb7565b60405180910390fd5b819050919050565b60008061254c856000018585613965565b91509150935093915050565b60008082600001805490509050600081146125b757612586836000016001836125819190616d9d565b613cec565b60000160049054906101000a90047bffffffffffffffffffffffffffffffffffffffffffffffffffffffff166125ba565b60005b915050919050565b600065ffffffffffff801682111561260f576040517f08c379a000000000000000000000000000000000000000000000000000000000815260040161260690617049565b60405180910390fd5b819050919050565b6000600c60009054906101000a900473ffffffffffffffffffffffffffffffffffffffff16905090565b60007f6e665ced000000000000000000000000000000000000000000000000000000007bffffffffffffffffffffffffffffffffffffffffffffffffffffffff1916827bffffffffffffffffffffffffffffffffffffffffffffffffffffffff191614806126b457506126b382613d01565b5b9050919050565b6000600754905090565b60006126d86126d2613f1d565b83613fd4565b9050919050565b60008060006126f087878787614015565b915091506126fd816140f8565b8192505050949350505050565b6000806003600088815260200190815260200160002090506001600781111561273657612735615c10565b5b61273f88611478565b600781111561275157612750615c10565b5b14612791576040517f08c379a0000000000000000000000000000000000000000000000000000000008152600401612788906170db565b60405180910390fd5b60006127c0878360000160009054906101000a900467ffffffffffffffff1667ffffffffffffffff16866135c1565b90506127cf8888888488614266565b600084511415612832578673ffffffffffffffffffffffffffffffffffffffff167fb8e138887d0aa13bab447e82de9d5c1777041ecd21ca36ba824ff1e6c07ddda48988848960405161282594939291906170fb565b60405180910390a2612889565b8673ffffffffffffffffffffffffffffffffffffffff167fe2babfbac5889a709b63bb7f598b324e08bc5a4fb9ec647fb3cbc9ec07eb87128988848989604051612880959493929190617191565b60405180910390a25b809250505095945050505050565b600033905090565b3660008036915091509091565b60006128b78261446d565b156128ee576040517f3db2a12a00000000000000000000000000000000000000000000000000000000815260040160405180910390fd5b60008260000160009054906101000a9004600f0b905082600101600082600f0b600f0b815260200190815260200160002054915082600101600082600f0b600f0b815260200190815260200160002060009055600181018360000160006101000a8154816fffffffffffffffffffffffffffffffff0219169083600f0b6fffffffffffffffffffffffffffffffff16021790555050919050565b612990611cd4565b8111156129d2576040517f08c379a00000000000000000000000000000000000000000000000000000000081526004016129c99061728a565b60405180910390fd5b60006129dc611cf3565b9050600081141580156129f757506000600b60000180549050145b15612ae957600b6000016040518060400160405280600063ffffffff168152602001612a228461247d565b7bffffffffffffffffffffffffffffffffffffffffffffffffffffffff168152509080600181540180825580915050600190039060005260206000200160009091909190915060008201518160000160006101000a81548163ffffffff021916908363ffffffff16021790555060208201518160000160046101000a8154817bffffffffffffffffffffffffffffffffffffffffffffffffffffffff02191690837bffffffffffffffffffffffffffffffffffffffffffffffffffffffff16021790555050505b612b1e612b04612af7611c1f565b65ffffffffffff166124e8565b612b0d8461247d565b600b61253b9092919063ffffffff16565b50507f0553476bf02ef2726e8ce5ced78d63e26e602e4a2257b1f559418e24b46339978183604051612b51929190616b86565b60405180910390a15050565b3073ffffffffffffffffffffffffffffffffffffffff16612b7c610c60565b73ffffffffffffffffffffffffffffffffffffffff1614612c3a5760005b8451811015612c38573073ffffffffffffffffffffffffffffffffffffffff16858281518110612bcd57612bcc616dd1565b5b602002602001015173ffffffffffffffffffffffffffffffffffffffff161415612c2757612c26838281518110612c0757612c06616dd1565b5b60200260200101518051906020012060046144a290919063ffffffff16565b5b80612c31906172aa565b9050612b9a565b505b5050505050565b612c4e858585858561451e565b5050505050565b3073ffffffffffffffffffffffffffffffffffffffff16612c74610c60565b73ffffffffffffffffffffffffffffffffffffffff1614612ca957612c99600461446d565b612ca857612ca760046145bc565b5b5b5050505050565b6000600654905090565b6000612cd085858585612ccb6137ca565b61270a565b9050949350505050565b600080612ce68361463d565b905060046007811115612cfc57612cfb615c10565b5b816007811115612d0f57612d0e615c10565b5b14612d1d5780915050612ec7565b6000600d60008581526020019081526020016000205490506000801b811415612d4a578192505050612ec7565b600c60009054906101000a900473ffffffffffffffffffffffffffffffffffffffff1673ffffffffffffffffffffffffffffffffffffffff16632ab0f529826040518263ffffffff1660e01b8152600401612da59190615b7a565b60206040518083038186803b158015612dbd57600080fd5b505afa158015612dd1573d6000803e3d6000fd5b505050506040513d601f19601f82011682018060405250810190612df5919061731f565b15612e0557600792505050612ec7565b600c60009054906101000a900473ffffffffffffffffffffffffffffffffffffffff1673ffffffffffffffffffffffffffffffffffffffff1663584b153e826040518263ffffffff1660e01b8152600401612e609190615b7a565b60206040518083038186803b158015612e7857600080fd5b505afa158015612e8c573d6000803e3d6000fd5b505050506040513d601f19601f82011682018060405250810190612eb0919061731f565b15612ec057600592505050612ec7565b6002925050505b919050565b6000612eda8585858561476a565b9050949350505050565b600080836000018054905090506000808290506005831115612f66576000612f0b8461485c565b84612f169190616d9d565b9050612f258760000182613cec565b60000160009054906101000a900463ffffffff1663ffffffff168663ffffffff161015612f5457809150612f64565b600181612f619190616b30565b92505b505b6000612f7787600001878585614956565b905060008114612fcb57612f9a87600001600183612f959190616d9d565b613cec565b60000160049054906101000a90047bffffffffffffffffffffffffffffffffffffffffffffffffffffffff16612fce565b60005b94505050505092915050565b7fc565b045403dc03c2eea82b81a0465edad9e2e7fc4d97e11421c209da93d7a936006548260405161300d929190616b86565b60405180910390a18060068190555050565b60008061302a612897565b905061303681846149c9565b613075576040517f08c379a000000000000000000000000000000000000000000000000000000000815260040161306c90617398565b60405180910390fd5b600061307f611c1f565b65ffffffffffff169050613091611f12565b6130a7836001846130a29190616d9d565b6122c5565b10156130e8576040517f08c379a00000000000000000000000000000000000000000000000000000000081526004016130df9061742a565b60405180910390fd5b60006130fd8888888880519060200120612102565b90508651885114613143576040517f08c379a000000000000000000000000000000000000000000000000000000000815260040161313a906174bc565b60405180910390fd5b8551885114613187576040517f08c379a000000000000000000000000000000000000000000000000000000000815260040161317e906174bc565b60405180910390fd5b60008851116131cb576040517f08c379a00000000000000000000000000000000000000000000000000000000081526004016131c290617528565b60405180910390fd5b60006003600083815260200190815260200160002060000160009054906101000a900467ffffffffffffffff1667ffffffffffffffff1614613242576040517f08c379a0000000000000000000000000000000000000000000000000000000008152600401613239906175ba565b60405180910390fd5b600061324c6113df565b836132579190616b30565b90506000613263610c81565b8261326e9190616b30565b90506040518060e0016040528061328484614b1b565b67ffffffffffffffff1681526020018673ffffffffffffffffffffffffffffffffffffffff168152602001600060e01b7bffffffffffffffffffffffffffffffffffffffffffffffffffffffff191681526020016132e183614b1b565b67ffffffffffffffff168152602001600060401b67ffffffffffffffff19168152602001600015158152602001600015158152506003600085815260200190815260200160002060008201518160000160006101000a81548167ffffffffffffffff021916908367ffffffffffffffff16021790555060208201518160000160086101000a81548173ffffffffffffffffffffffffffffffffffffffff021916908373ffffffffffffffffffffffffffffffffffffffff160217905550604082015181600001601c6101000a81548163ffffffff021916908360e01c021790555060608201518160010160006101000a81548167ffffffffffffffff021916908367ffffffffffffffff16021790555060808201518160010160086101000a81548177ffffffffffffffffffffffffffffffffffffffffffffffff021916908360401c021790555060a08201518160020160006101000a81548160ff02191690831515021790555060c08201518160020160016101000a81548160ff0219169083151502179055509050507f7d84a6263ae0d98d3329bd7b46bb4e8d6f98cd35a7adb45c274c8b7fd5ebd5e083868c8c8e5167ffffffffffffffff8111156134ac576134ab61540f565b5b6040519080825280602002602001820160405280156134df57816020015b60608152602001906001900390816134ca5790505b508d88888f6040516134f9999897969594939291906176e6565b60405180910390a18295505050505050949350505050565b606060ff60001b831461352e5761352783614b72565b90506135bb565b81805461353a906166be565b80601f0160208091040260200160405190810160405280929190818152602001828054613566906166be565b80156135b35780601f10613588576101008083540402835291602001916135b3565b820191906000526020600020905b81548152906001019060200180831161359657829003601f168201915b505050505090505b92915050565b60007f000000000000000000000000000000000000000000000000000000000000000073ffffffffffffffffffffffffffffffffffffffff16633a46b1a885856040518363ffffffff1660e01b815260040161361e929190617796565b60206040518083038186803b15801561363657600080fd5b505afa15801561364a573d6000803e3d6000fd5b505050506040513d601f19601f8201168201806040525081019061366e9190616797565b90509392505050565b7f08f74ea46ef7894f65eabfb5e6e695de773a000b47c529ab559178069b226401600c60009054906101000a900473ffffffffffffffffffffffffffffffffffffffff16826040516136ca9291906177bf565b60405180910390a180600c60006101000a81548173ffffffffffffffffffffffffffffffffffffffff021916908373ffffffffffffffffffffffffffffffffffffffff16021790555050565b6000600854905090565b606083156137305782905061373b565b61373a8383614be6565b5b9392505050565b60008111613785576040517f08c379a000000000000000000000000000000000000000000000000000000000815260040161377c9061785a565b60405180910390fd5b7f7e3f7f0708a84de9203036abaa450dccc85ad5ff52f78c170f3edb55cf5e8828600754826040516137b8929190616b86565b60405180910390a18060078190555050565b606060405180602001604052806000815250905090565b7fccb45da8d5717e6c4544694297c4ba5cf151d455c9bb0ed4fc7a38411bc0546160085482604051613814929190616b86565b60405180910390a18060088190555050565b6000613830611cd4565b6138398361182e565b7f000000000000000000000000000000000000000000000000000000000000000073ffffffffffffffffffffffffffffffffffffffff16638e539e8c856040518263ffffffff1660e01b81526004016138929190615314565b60206040518083038186803b1580156138aa57600080fd5b505afa1580156138be573d6000803e3d6000fd5b505050506040513d601f19601f820116820180604052508101906138e29190616797565b6138ec919061787a565b6138f69190617903565b9050919050565b600080829050601f8151111561394a57826040517f305a27a900000000000000000000000000000000000000000000000000000000815260040161394191906156f2565b60405180910390fd5b80518161395690617966565b60001c1760001b915050919050565b6000806000858054905090506000811115613bfc5760006139928760018461398d9190616d9d565b613cec565b6040518060400160405290816000820160009054906101000a900463ffffffff1663ffffffff1663ffffffff1681526020016000820160049054906101000a90047bffffffffffffffffffffffffffffffffffffffffffffffffffffffff167bffffffffffffffffffffffffffffffffffffffffffffffffffffffff167bffffffffffffffffffffffffffffffffffffffffffffffffffffffff168152505090508563ffffffff16816000015163ffffffff161115613a86576040517f08c379a0000000000000000000000000000000000000000000000000000000008152600401613a7d90617a19565b60405180910390fd5b8563ffffffff16816000015163ffffffff161415613b0b5784613ab588600185613ab09190616d9d565b613cec565b60000160046101000a8154817bffffffffffffffffffffffffffffffffffffffffffffffffffffffff02191690837bffffffffffffffffffffffffffffffffffffffffffffffffffffffff160217905550613beb565b8660405180604001604052808863ffffffff168152602001877bffffffffffffffffffffffffffffffffffffffffffffffffffffffff168152509080600181540180825580915050600190039060005260206000200160009091909190915060008201518160000160006101000a81548163ffffffff021916908363ffffffff16021790555060208201518160000160046101000a8154817bffffffffffffffffffffffffffffffffffffffffffffffffffffffff02191690837bffffffffffffffffffffffffffffffffffffffffffffffffffffffff16021790555050505b806020015185935093505050613ce4565b8560405180604001604052808763ffffffff168152602001867bffffffffffffffffffffffffffffffffffffffffffffffffffffffff168152509080600181540180825580915050600190039060005260206000200160009091909190915060008201518160000160006101000a81548163ffffffff021916908363ffffffff16021790555060208201518160000160046101000a8154817bffffffffffffffffffffffffffffffffffffffffffffffffffffffff02191690837bffffffffffffffffffffffffffffffffffffffffffffffffffffffff160217905550505060008492509250505b935093915050565b60008260005281602060002001905092915050565b60008063143489d060e01b63452115d660e01b1890506000639a802a6d60e01b630342018160e01b635f398a1460e01b18189050600081837fda287a1d000000000000000000000000000000000000000000000000000000007ff2e09f740000000000000000000000000000000000000000000000000000000018181890506000837fda287a1d000000000000000000000000000000000000000000000000000000007ff2e09f740000000000000000000000000000000000000000000000000000000018189050817bffffffffffffffffffffffffffffffffffffffffffffffffffffffff1916867bffffffffffffffffffffffffffffffffffffffffffffffffffffffff19161480613e525750807bffffffffffffffffffffffffffffffffffffffffffffffffffffffff1916867bffffffffffffffffffffffffffffffffffffffffffffffffffffffff1916145b80613e9a5750837bffffffffffffffffffffffffffffffffffffffffffffffffffffffff1916867bffffffffffffffffffffffffffffffffffffffffffffffffffffffff1916145b80613f0257507f4e2312e0000000000000000000000000000000000000000000000000000000007bffffffffffffffffffffffffffffffffffffffffffffffffffffffff1916867bffffffffffffffffffffffffffffffffffffffffffffffffffffffff1916145b80613f125750613f1186614c36565b5b945050505050919050565b60007f000000000000000000000000000000000000000000000000000000000000000073ffffffffffffffffffffffffffffffffffffffff163073ffffffffffffffffffffffffffffffffffffffff16148015613f9957507f000000000000000000000000000000000000000000000000000000000000000046145b15613fc6577f00000000000000000000000000000000000000000000000000000000000000009050613fd1565b613fce614ca0565b90505b90565b60006040517f190100000000000000000000000000000000000000000000000000000000000081528360028201528260228201526042812091505092915050565b6000807f7fffffffffffffffffffffffffffffff5d576e7357a4501ddfe92f46681b20a08360001c11156140505760006003915091506140ef565b6000600187878787604051600081526020016040526040516140759493929190617a39565b6020604051602081039080840390855afa158015614097573d6000803e3d6000fd5b505050602060405103519050600073ffffffffffffffffffffffffffffffffffffffff168173ffffffffffffffffffffffffffffffffffffffff1614156140e6576000600192509250506140ef565b80600092509250505b94509492505050565b6000600481111561410c5761410b615c10565b5b81600481111561411f5761411e615c10565b5b141561412a57614263565b6001600481111561413e5761413d615c10565b5b81600481111561415157614150615c10565b5b1415614192576040517f08c379a000000000000000000000000000000000000000000000000000000000815260040161418990617aca565b60405180910390fd5b600260048111156141a6576141a5615c10565b5b8160048111156141b9576141b8615c10565b5b14156141fa576040517f08c379a00000000000000000000000000000000000000000000000000000000081526004016141f190617b36565b60405180910390fd5b6003600481111561420e5761420d615c10565b5b81600481111561422157614220615c10565b5b1415614262576040517f08c379a000000000000000000000000000000000000000000000000000000000815260040161425990617bc8565b60405180910390fd5b5b50565b60006009600087815260200190815260200160002090508060030160008673ffffffffffffffffffffffffffffffffffffffff1673ffffffffffffffffffffffffffffffffffffffff16815260200190815260200160002060009054906101000a900460ff161561430c576040517f08c379a000000000000000000000000000000000000000000000000000000000815260040161430390617c5a565b60405180910390fd5b60018160030160008773ffffffffffffffffffffffffffffffffffffffff1673ffffffffffffffffffffffffffffffffffffffff16815260200190815260200160002060006101000a81548160ff0219169083151502179055506000600281111561437a57614379615c10565b5b60ff168460ff1614156143a7578281600001600082825461439b9190616b30565b92505081905550614465565b600160028111156143bb576143ba615c10565b5b60ff168460ff1614156143e857828160010160008282546143dc9190616b30565b92505081905550614464565b6002808111156143fb576143fa615c10565b5b60ff168460ff161415614428578281600201600082825461441c9190616b30565b92505081905550614463565b6040517f08c379a000000000000000000000000000000000000000000000000000000000815260040161445a90617cec565b60405180910390fd5b5b5b505050505050565b60008160000160009054906101000a9004600f0b600f0b8260000160109054906101000a9004600f0b600f0b13159050919050565b60008260000160109054906101000a9004600f0b90508183600101600083600f0b600f0b815260200190815260200160002081905550600181018360000160106101000a8154816fffffffffffffffffffffffffffffffff0219169083600f0b6fffffffffffffffffffffffffffffffff160217905550505050565b600c60009054906101000a900473ffffffffffffffffffffffffffffffffffffffff1673ffffffffffffffffffffffffffffffffffffffff1663e38335e5348686866000876040518763ffffffff1660e01b81526004016145839594939291906169e1565b6000604051808303818588803b15801561459c57600080fd5b505af11580156145b0573d6000803e3d6000fd5b50505050505050505050565b60008160000160006101000a8154816fffffffffffffffffffffffffffffffff0219169083600f0b6fffffffffffffffffffffffffffffffff16021790555060008160000160106101000a8154816fffffffffffffffffffffffffffffffff0219169083600f0b6fffffffffffffffffffffffffffffffff16021790555050565b6000806003600084815260200190815260200160002090508060020160009054906101000a900460ff1615614676576007915050614765565b8060020160019054906101000a900460ff1615614697576002915050614765565b60006146a28461137d565b905060008114156146e8576040517f08c379a00000000000000000000000000000000000000000000000000000000081526004016146df90617d58565b60405180910390fd5b60006146f2611c1f565b65ffffffffffff16905080821061470f5760009350505050614765565b600061471a86611f36565b9050818110614730576001945050505050614765565b61473986614d36565b801561474a575061474986614d7d565b5b1561475c576004945050505050614765565b60039450505050505b919050565b60008061477986868686614da8565b90506000801b600d6000838152602001908152602001600020541461485057600c60009054906101000a900473ffffffffffffffffffffffffffffffffffffffff1673ffffffffffffffffffffffffffffffffffffffff1663c4d252f5600d6000848152602001908152602001600020546040518263ffffffff1660e01b81526004016148069190615b7a565b600060405180830381600087803b15801561482057600080fd5b505af1158015614834573d6000803e3d6000fd5b50505050600d6000828152602001908152602001600020600090555b80915050949350505050565b60008082141561486f5760009050614951565b6000600161487c84614f02565b901c6001901b90506001818481614896576148956178d4565b5b048201901c905060018184816148af576148ae6178d4565b5b048201901c905060018184816148c8576148c76178d4565b5b048201901c905060018184816148e1576148e06178d4565b5b048201901c905060018184816148fa576148f96178d4565b5b048201901c90506001818481614913576149126178d4565b5b048201901c9050600181848161492c5761492b6178d4565b5b048201901c905061494d81828581614947576149466178d4565b5b04614fe3565b9150505b919050565b60005b818310156149be57600061496d8484614ffc565b90508463ffffffff166149808783613cec565b60000160009054906101000a900463ffffffff1663ffffffff1611156149a8578092506149b8565b6001816149b59190616b30565b93505b50614959565b819050949350505050565b6000808251905060348110156149e3576001915050614b15565b60006014820384015190507f2370726f706f7365723d3078000000000000000000000000000000000000000073ffffffffffffffffffffffffffffffffffffffff19168173ffffffffffffffffffffffffffffffffffffffff191614614a4e57600192505050614b15565b600080602884614a5e9190616d9d565b90505b83811015614adf57600080614a92888481518110614a8257614a81616dd1565b5b602001015160f81c60f81b615022565b9150915081614aaa5760019650505050505050614b15565b8060ff1660048573ffffffffffffffffffffffffffffffffffffffff16901b179350505080614ad8906172aa565b9050614a61565b508573ffffffffffffffffffffffffffffffffffffffff168173ffffffffffffffffffffffffffffffffffffffff161493505050505b92915050565b600067ffffffffffffffff8016821115614b6a576040517f08c379a0000000000000000000000000000000000000000000000000000000008152600401614b6190617dea565b60405180910390fd5b819050919050565b60606000614b7f836150bc565b90506000602067ffffffffffffffff811115614b9e57614b9d61540f565b5b6040519080825280601f01601f191660200182016040528015614bd05781602001600182028036833780820191505090505b5090508181528360208201528092505050919050565b600082511115614bf95781518083602001fd5b806040517f08c379a0000000000000000000000000000000000000000000000000000000008152600401614c2d91906156f2565b60405180910390fd5b60007f01ffc9a7000000000000000000000000000000000000000000000000000000007bffffffffffffffffffffffffffffffffffffffffffffffffffffffff1916827bffffffffffffffffffffffffffffffffffffffffffffffffffffffff1916149050919050565b60007f8b73c3c69bb8fe3d512ecc4cf759cc79239f7b179b0ffacaa9a75d522b39400f7f00000000000000000000000000000000000000000000000000000000000000007f00000000000000000000000000000000000000000000000000000000000000004630604051602001614d1b959493929190617e0a565b60405160208183030381529060405280519060200120905090565b60008060096000848152602001908152602001600020905080600201548160010154614d629190616b30565b614d73614d6e8561137d565b6123f2565b1115915050919050565b6000806009600084815260200190815260200160002090508060000154816001015411915050919050565b600080614db786868686612102565b90506000614dc482611478565b905060026007811115614dda57614dd9615c10565b5b816007811115614ded57614dec615c10565b5b14158015614e20575060066007811115614e0a57614e09615c10565b5b816007811115614e1d57614e1c615c10565b5b14155b8015614e505750600780811115614e3a57614e39615c10565b5b816007811115614e4d57614e4c615c10565b5b14155b614e8f576040517f08c379a0000000000000000000000000000000000000000000000000000000008152600401614e8690617ea9565b60405180910390fd5b60016003600084815260200190815260200160002060020160016101000a81548160ff0219169083151502179055507f789cf55be980739dad1d0699b93b58e806b51c9d96619bfa8fe0a28abaa7b30c82604051614eed9190615314565b60405180910390a18192505050949350505050565b600080600090506000608084901c1115614f2457608083901c92506080810190505b6000604084901c1115614f3f57604083901c92506040810190505b6000602084901c1115614f5a57602083901c92506020810190505b6000601084901c1115614f7557601083901c92506010810190505b6000600884901c1115614f9057600883901c92506008810190505b6000600484901c1115614fab57600483901c92506004810190505b6000600284901c1115614fc657600283901c92506002810190505b6000600184901c1115614fda576001810190505b80915050919050565b6000818310614ff25781614ff4565b825b905092915050565b6000600282841861500d9190617903565b82841661501a9190616b30565b905092915050565b60008060008360f81c90508060ff16602f1080156150435750603a8160ff16105b156150585760016030820392509250506150b7565b8060ff16604010801561506e575060478160ff16105b156150835760016037820392509250506150b7565b8060ff166060108015615099575060678160ff16105b156150ae5760016057820392509250506150b7565b60008092509250505b915091565b60008060ff8360001c169050601f811115615103576040517fb3512b0c00000000000000000000000000000000000000000000000000000000815260040160405180910390fd5b80915050919050565b828054615118906166be565b90600052602060002090601f01602090048101928261513a5760008555615181565b82601f1061515357805160ff1916838001178555615181565b82800160010185558215615181579182015b82811115615180578251825591602001919060010190615165565b5b50905061518e9190615192565b5090565b5b808211156151ab576000816000905550600101615193565b5090565b600082825260208201905092915050565b7f476f7665726e6f723a206d7573742073656e6420746f206578656375746f7200600082015250565b60006151f6601f836151af565b9150615201826151c0565b602082019050919050565b60006020820190508181036000830152615225816151e9565b9050919050565b6000604051905090565b600080fd5b600080fd5b60007fffffffff0000000000000000000000000000000000000000000000000000000082169050919050565b61527581615240565b811461528057600080fd5b50565b6000813590506152928161526c565b92915050565b6000602082840312156152ae576152ad615236565b5b60006152bc84828501615283565b91505092915050565b60008115159050919050565b6152da816152c5565b82525050565b60006020820190506152f560008301846152d1565b92915050565b6000819050919050565b61530e816152fb565b82525050565b60006020820190506153296000830184615305565b92915050565b615338816152fb565b811461534357600080fd5b50565b6000813590506153558161532f565b92915050565b600060ff82169050919050565b6153718161535b565b811461537c57600080fd5b50565b60008135905061538e81615368565b92915050565b600080fd5b600080fd5b600080fd5b60008083601f8401126153b9576153b8615394565b5b8235905067ffffffffffffffff8111156153d6576153d5615399565b5b6020830191508360018202830111156153f2576153f161539e565b5b9250929050565b600080fd5b6000601f19601f8301169050919050565b7f4e487b7100000000000000000000000000000000000000000000000000000000600052604160045260246000fd5b615447826153fe565b810181811067ffffffffffffffff821117156154665761546561540f565b5b80604052505050565b600061547961522c565b9050615485828261543e565b919050565b600067ffffffffffffffff8211156154a5576154a461540f565b5b6154ae826153fe565b9050602081019050919050565b82818337600083830152505050565b60006154dd6154d88461548a565b61546f565b9050828152602081018484840111156154f9576154f86153f9565b5b6155048482856154bb565b509392505050565b600082601f83011261552157615520615394565b5b81356155318482602086016154ca565b91505092915050565b6000819050919050565b61554d8161553a565b811461555857600080fd5b50565b60008135905061556a81615544565b92915050565b60008060008060008060008060e0898b0312156155905761558f615236565b5b600061559e8b828c01615346565b98505060206155af8b828c0161537f565b975050604089013567ffffffffffffffff8111156155d0576155cf61523b565b5b6155dc8b828c016153a3565b9650965050606089013567ffffffffffffffff8111156155ff576155fe61523b565b5b61560b8b828c0161550c565b945050608061561c8b828c0161537f565b93505060a061562d8b828c0161555b565b92505060c061563e8b828c0161555b565b9150509295985092959890939650565b60006020828403121561566457615663615236565b5b600061567284828501615346565b91505092915050565b600081519050919050565b60005b838110156156a4578082015181840152602081019050615689565b838111156156b3576000848401525b50505050565b60006156c48261567b565b6156ce81856151af565b93506156de818560208601615686565b6156e7816153fe565b840191505092915050565b6000602082019050818103600083015261570c81846156b9565b905092915050565b600073ffffffffffffffffffffffffffffffffffffffff82169050919050565b600061573f82615714565b9050919050565b61574f81615734565b82525050565b600060208201905061576a6000830184615746565b92915050565b61577981615734565b811461578457600080fd5b50565b60008135905061579681615770565b92915050565b600080600080608085870312156157b6576157b5615236565b5b60006157c487828801615787565b94505060206157d587828801615787565b93505060406157e687828801615346565b925050606085013567ffffffffffffffff8111156158075761580661523b565b5b6158138782880161550c565b91505092959194509250565b61582881615240565b82525050565b6000602082019050615843600083018461581f565b92915050565b600067ffffffffffffffff8211156158645761586361540f565b5b602082029050602081019050919050565b600061588861588384615849565b61546f565b905080838252602082019050602084028301858111156158ab576158aa61539e565b5b835b818110156158d457806158c08882615787565b8452602084019350506020810190506158ad565b5050509392505050565b600082601f8301126158f3576158f2615394565b5b8135615903848260208601615875565b91505092915050565b600067ffffffffffffffff8211156159275761592661540f565b5b602082029050602081019050919050565b600061594b6159468461590c565b61546f565b9050808382526020820190506020840283018581111561596e5761596d61539e565b5b835b8181101561599757806159838882615346565b845260208401935050602081019050615970565b5050509392505050565b600082601f8301126159b6576159b5615394565b5b81356159c6848260208601615938565b91505092915050565b600067ffffffffffffffff8211156159ea576159e961540f565b5b602082029050602081019050919050565b6000615a0e615a09846159cf565b61546f565b90508083825260208201905060208402830185811115615a3157615a3061539e565b5b835b81811015615a7857803567ffffffffffffffff811115615a5657615a55615394565b5b808601615a63898261550c565b85526020850194505050602081019050615a33565b5050509392505050565b600082601f830112615a9757615a96615394565b5b8135615aa78482602086016159fb565b91505092915050565b60008060008060808587031215615aca57615ac9615236565b5b600085013567ffffffffffffffff811115615ae857615ae761523b565b5b615af4878288016158de565b945050602085013567ffffffffffffffff811115615b1557615b1461523b565b5b615b21878288016159a1565b935050604085013567ffffffffffffffff811115615b4257615b4161523b565b5b615b4e87828801615a82565b9250506060615b5f8782880161555b565b91505092959194509250565b615b748161553a565b82525050565b6000602082019050615b8f6000830184615b6b565b92915050565b600080600080600060a08688031215615bb157615bb0615236565b5b6000615bbf88828901615346565b9550506020615bd08882890161537f565b9450506040615be18882890161537f565b9350506060615bf28882890161555b565b9250506080615c038882890161555b565b9150509295509295909350565b7f4e487b7100000000000000000000000000000000000000000000000000000000600052602160045260246000fd5b60088110615c5057615c4f615c10565b5b50565b6000819050615c6182615c3f565b919050565b6000615c7182615c53565b9050919050565b615c8181615c66565b82525050565b6000602082019050615c9c6000830184615c78565b92915050565b60008060408385031215615cb957615cb8615236565b5b6000615cc785828601615346565b9250506020615cd885828601615787565b9150509250929050565b6000606082019050615cf76000830186615305565b615d046020830185615305565b615d116040830184615305565b949350505050565b60008060408385031215615d3057615d2f615236565b5b6000615d3e85828601615346565b9250506020615d4f8582860161537f565b9150509250929050565b600080600080600060808688031215615d7557615d74615236565b5b6000615d8388828901615346565b9550506020615d948882890161537f565b945050604086013567ffffffffffffffff811115615db557615db461523b565b5b615dc1888289016153a3565b9350935050606086013567ffffffffffffffff811115615de457615de361523b565b5b615df08882890161550c565b9150509295509295909350565b60008060008060608587031215615e1757615e16615236565b5b6000615e2587828801615346565b9450506020615e368782880161537f565b935050604085013567ffffffffffffffff811115615e5757615e5661523b565b5b615e63878288016153a3565b925092505092959194509250565b600067ffffffffffffffff821115615e8c57615e8b61540f565b5b615e95826153fe565b9050602081019050919050565b6000615eb5615eb084615e71565b61546f565b905082815260208101848484011115615ed157615ed06153f9565b5b615edc8482856154bb565b509392505050565b600082601f830112615ef957615ef8615394565b5b8135615f09848260208601615ea2565b91505092915050565b60008060008060808587031215615f2c57615f2b615236565b5b600085013567ffffffffffffffff811115615f4a57615f4961523b565b5b615f56878288016158de565b945050602085013567ffffffffffffffff811115615f7757615f7661523b565b5b615f83878288016159a1565b935050604085013567ffffffffffffffff811115615fa457615fa361523b565b5b615fb087828801615a82565b925050606085013567ffffffffffffffff811115615fd157615fd061523b565b5b615fdd87828801615ee4565b91505092959194509250565b60007fff0000000000000000000000000000000000000000000000000000000000000082169050919050565b61601e81615fe9565b82525050565b600081519050919050565b600082825260208201905092915050565b6000819050602082019050919050565b616059816152fb565b82525050565b600061606b8383616050565b60208301905092915050565b6000602082019050919050565b600061608f82616024565b616099818561602f565b93506160a483616040565b8060005b838110156160d55781516160bc888261605f565b97506160c783616077565b9250506001810190506160a8565b5085935050505092915050565b600060e0820190506160f7600083018a616015565b818103602083015261610981896156b9565b9050818103604083015261611d81886156b9565b905061612c6060830187615305565b6161396080830186615746565b61614660a0830185615b6b565b81810360c08301526161588184616084565b905098975050505050505050565b600065ffffffffffff82169050919050565b61618181616166565b82525050565b600060208201905061619c6000830184616178565b92915050565b6000806000606084860312156161bb576161ba615236565b5b60006161c986828701615787565b93505060206161da86828701615346565b925050604084013567ffffffffffffffff8111156161fb576161fa61523b565b5b6162078682870161550c565b9150509250925092565b600061621c82615714565b9050919050565b600061622e82616211565b9050919050565b61623e81616223565b811461624957600080fd5b50565b60008135905061625b81616235565b92915050565b60006020828403121561627757616276615236565b5b60006162858482850161624c565b91505092915050565b600080600080600060a086880312156162aa576162a9615236565b5b60006162b888828901615787565b95505060206162c988828901615787565b945050604086013567ffffffffffffffff8111156162ea576162e961523b565b5b6162f6888289016159a1565b935050606086013567ffffffffffffffff8111156163175761631661523b565b5b616323888289016159a1565b925050608086013567ffffffffffffffff8111156163445761634361523b565b5b6163508882890161550c565b9150509295509295909350565b60008083601f84011261637357616372615394565b5b8235905067ffffffffffffffff8111156163905761638f615399565b5b6020830191508360018202830111156163ac576163ab61539e565b5b9250929050565b600080600080606085870312156163cd576163cc615236565b5b60006163db87828801615787565b94505060206163ec87828801615346565b935050604085013567ffffffffffffffff81111561640d5761640c61523b565b5b6164198782880161635d565b925092505092959194509250565b6000806040838503121561643e5761643d615236565b5b600061644c85828601615787565b925050602061645d85828601615346565b9150509250929050565b600080600080600060a0868803121561648357616482615236565b5b600061649188828901615787565b95505060206164a288828901615787565b94505060406164b388828901615346565b93505060606164c488828901615346565b925050608086013567ffffffffffffffff8111156164e5576164e461523b565b5b6164f18882890161550c565b9150509295509295909350565b6000819050919050565b600061652361651e61651984615714565b6164fe565b615714565b9050919050565b600061653582616508565b9050919050565b60006165478261652a565b9050919050565b6165578161653c565b82525050565b6000602082019050616572600083018461654e565b92915050565b600081905092915050565b600061658f8385616578565b935061659c8385846154bb565b82840190509392505050565b60006165b5828486616583565b91508190509392505050565b6165ca8161535b565b82525050565b600060a0820190506165e56000830188615b6b565b6165f26020830187615305565b6165ff60408301866165c1565b61660c6060830185615b6b565b6166196080830184615b6b565b9695505050505050565b7f476f7665726e6f723a206f6e6c79476f7665726e616e63650000000000000000600082015250565b60006166596018836151af565b915061666482616623565b602082019050919050565b600060208201905081810360008301526166888161664c565b9050919050565b7f4e487b7100000000000000000000000000000000000000000000000000000000600052602260045260246000fd5b600060028204905060018216806166d657607f821691505b602082108114156166ea576166e961668f565b5b50919050565b7f476f7665726e6f723a2070726f706f73616c206e6f742073756363657373667560008201527f6c00000000000000000000000000000000000000000000000000000000000000602082015250565b600061674c6021836151af565b9150616757826166f0565b604082019050919050565b6000602082019050818103600083015261677b8161673f565b9050919050565b6000815190506167918161532f565b92915050565b6000602082840312156167ad576167ac615236565b5b60006167bb84828501616782565b91505092915050565b600081519050919050565b600082825260208201905092915050565b6000819050602082019050919050565b6167f981615734565b82525050565b600061680b83836167f0565b60208301905092915050565b6000602082019050919050565b600061682f826167c4565b61683981856167cf565b9350616844836167e0565b8060005b8381101561687557815161685c88826167ff565b975061686783616817565b925050600181019050616848565b5085935050505092915050565b600081519050919050565b600082825260208201905092915050565b6000819050602082019050919050565b600081519050919050565b600082825260208201905092915050565b60006168d5826168ae565b6168df81856168b9565b93506168ef818560208601615686565b6168f8816153fe565b840191505092915050565b600061690f83836168ca565b905092915050565b6000602082019050919050565b600061692f82616882565b616939818561688d565b93508360208202850161694b8561689e565b8060005b8581101561698757848403895281516169688582616903565b945061697383616917565b925060208a0199505060018101905061694f565b50829750879550505050505092915050565b6000819050919050565b60008160001b9050919050565b60006169cb6169c66169c184616999565b6169a3565b61553a565b9050919050565b6169db816169b0565b82525050565b600060a08201905081810360008301526169fb8188616824565b90508181036020830152616a0f8187616084565b90508181036040830152616a238186616924565b9050616a3260608301856169d2565b616a3f6080830184615b6b565b9695505050505050565b600081519050616a5881615544565b92915050565b600060208284031215616a7457616a73615236565b5b6000616a8284828501616a49565b91505092915050565b600060c0820190508181036000830152616aa58189616824565b90508181036020830152616ab98188616084565b90508181036040830152616acd8187616924565b9050616adc60608301866169d2565b616ae96080830185615b6b565b616af660a0830184615305565b979650505050505050565b7f4e487b7100000000000000000000000000000000000000000000000000000000600052601160045260246000fd5b6000616b3b826152fb565b9150616b46836152fb565b9250827fffffffffffffffffffffffffffffffffffffffffffffffffffffffffffffffff03821115616b7b57616b7a616b01565b5b828201905092915050565b6000604082019050616b9b6000830185615305565b616ba86020830184615305565b9392505050565b6000606082019050616bc46000830186615b6b565b616bd16020830185615305565b616bde60408301846165c1565b949350505050565b7f476f7665726e6f723a20746f6f206c61746520746f2063616e63656c00000000600082015250565b6000616c1c601c836151af565b9150616c2782616be6565b602082019050919050565b60006020820190508181036000830152616c4b81616c0f565b9050919050565b7f476f7665726e6f723a206f6e6c792070726f706f7365722063616e2063616e6360008201527f656c000000000000000000000000000000000000000000000000000000000000602082015250565b6000616cae6022836151af565b9150616cb982616c52565b604082019050919050565b60006020820190508181036000830152616cdd81616ca1565b9050919050565b6000616cf7616cf284615e71565b61546f565b905082815260208101848484011115616d1357616d126153f9565b5b616d1e848285615686565b509392505050565b600082601f830112616d3b57616d3a615394565b5b8151616d4b848260208601616ce4565b91505092915050565b600060208284031215616d6a57616d69615236565b5b600082015167ffffffffffffffff811115616d8857616d8761523b565b5b616d9484828501616d26565b91505092915050565b6000616da8826152fb565b9150616db3836152fb565b925082821015616dc657616dc5616b01565b5b828203905092915050565b7f4e487b7100000000000000000000000000000000000000000000000000000000600052603260045260246000fd5b616e0981616166565b8114616e1457600080fd5b50565b600081519050616e2681616e00565b92915050565b600060208284031215616e4257616e41615236565b5b6000616e5084828501616e17565b91505092915050565b60006080820190508181036000830152616e738187616824565b90508181036020830152616e878186616084565b90508181036040830152616e9b8185616924565b9050616eaa6060830184615b6b565b95945050505050565b7f53616665436173743a2076616c756520646f65736e27742066697420696e203260008201527f3234206269747300000000000000000000000000000000000000000000000000602082015250565b6000616f0f6027836151af565b9150616f1a82616eb3565b604082019050919050565b60006020820190508181036000830152616f3e81616f02565b9050919050565b7f53616665436173743a2076616c756520646f65736e27742066697420696e203360008201527f3220626974730000000000000000000000000000000000000000000000000000602082015250565b6000616fa16026836151af565b9150616fac82616f45565b604082019050919050565b60006020820190508181036000830152616fd081616f94565b9050919050565b7f53616665436173743a2076616c756520646f65736e27742066697420696e203460008201527f3820626974730000000000000000000000000000000000000000000000000000602082015250565b60006170336026836151af565b915061703e82616fd7565b604082019050919050565b6000602082019050818103600083015261706281617026565b9050919050565b7f476f7665726e6f723a20766f7465206e6f742063757272656e746c792061637460008201527f6976650000000000000000000000000000000000000000000000000000000000602082015250565b60006170c56023836151af565b91506170d082617069565b604082019050919050565b600060208201905081810360008301526170f4816170b8565b9050919050565b60006080820190506171106000830187615305565b61711d60208301866165c1565b61712a6040830185615305565b818103606083015261713c81846156b9565b905095945050505050565b600082825260208201905092915050565b6000617163826168ae565b61716d8185617147565b935061717d818560208601615686565b617186816153fe565b840191505092915050565b600060a0820190506171a66000830188615305565b6171b360208301876165c1565b6171c06040830186615305565b81810360608301526171d281856156b9565b905081810360808301526171e68184617158565b90509695505050505050565b7f476f7665726e6f72566f74657351756f72756d4672616374696f6e3a2071756f60008201527f72756d4e756d657261746f72206f7665722071756f72756d44656e6f6d696e6160208201527f746f720000000000000000000000000000000000000000000000000000000000604082015250565b60006172746043836151af565b915061727f826171f2565b606082019050919050565b600060208201905081810360008301526172a381617267565b9050919050565b60006172b5826152fb565b91507fffffffffffffffffffffffffffffffffffffffffffffffffffffffffffffffff8214156172e8576172e7616b01565b5b600182019050919050565b6172fc816152c5565b811461730757600080fd5b50565b600081519050617319816172f3565b92915050565b60006020828403121561733557617334615236565b5b60006173438482850161730a565b91505092915050565b7f476f7665726e6f723a2070726f706f7365722072657374726963746564000000600082015250565b6000617382601d836151af565b915061738d8261734c565b602082019050919050565b600060208201905081810360008301526173b181617375565b9050919050565b7f476f7665726e6f723a2070726f706f73657220766f7465732062656c6f77207060008201527f726f706f73616c207468726573686f6c64000000000000000000000000000000602082015250565b60006174146031836151af565b915061741f826173b8565b604082019050919050565b6000602082019050818103600083015261744381617407565b9050919050565b7f476f7665726e6f723a20696e76616c69642070726f706f73616c206c656e677460008201527f6800000000000000000000000000000000000000000000000000000000000000602082015250565b60006174a66021836151af565b91506174b18261744a565b604082019050919050565b600060208201905081810360008301526174d581617499565b9050919050565b7f476f7665726e6f723a20656d7074792070726f706f73616c0000000000000000600082015250565b60006175126018836151af565b915061751d826174dc565b602082019050919050565b6000602082019050818103600083015261754181617505565b9050919050565b7f476f7665726e6f723a2070726f706f73616c20616c726561647920657869737460008201527f7300000000000000000000000000000000000000000000000000000000000000602082015250565b60006175a46021836151af565b91506175af82617548565b604082019050919050565b600060208201905081810360008301526175d381617597565b9050919050565b600081519050919050565b600082825260208201905092915050565b6000819050602082019050919050565b600082825260208201905092915050565b60006176228261567b565b61762c8185617606565b935061763c818560208601615686565b617645816153fe565b840191505092915050565b600061765c8383617617565b905092915050565b6000602082019050919050565b600061767c826175da565b61768681856175e5565b935083602082028501617698856175f6565b8060005b858110156176d457848403895281516176b58582617650565b94506176c083617664565b925060208a0199505060018101905061769c565b50829750879550505050505092915050565b6000610120820190506176fc600083018c615305565b617709602083018b615746565b818103604083015261771b818a616824565b9050818103606083015261772f8189616084565b905081810360808301526177438188617671565b905081810360a08301526177578187616924565b905061776660c0830186615305565b61777360e0830185615305565b81810361010083015261778681846156b9565b90509a9950505050505050505050565b60006040820190506177ab6000830185615746565b6177b86020830184615305565b9392505050565b60006040820190506177d46000830185615746565b6177e16020830184615746565b9392505050565b7f476f7665726e6f7253657474696e67733a20766f74696e6720706572696f642060008201527f746f6f206c6f7700000000000000000000000000000000000000000000000000602082015250565b60006178446027836151af565b915061784f826177e8565b604082019050919050565b6000602082019050818103600083015261787381617837565b9050919050565b6000617885826152fb565b9150617890836152fb565b9250817fffffffffffffffffffffffffffffffffffffffffffffffffffffffffffffffff04831182151516156178c9576178c8616b01565b5b828202905092915050565b7f4e487b7100000000000000000000000000000000000000000000000000000000600052601260045260246000fd5b600061790e826152fb565b9150617919836152fb565b925082617929576179286178d4565b5b828204905092915050565b6000819050602082019050919050565b6000617950825161553a565b80915050919050565b600082821b905092915050565b6000617971826168ae565b8261797b84617934565b905061798681617944565b925060208210156179c6576179c17fffffffffffffffffffffffffffffffffffffffffffffffffffffffffffffffff83602003600802617959565b831692505b5050919050565b7f436865636b706f696e743a2064656372656173696e67206b6579730000000000600082015250565b6000617a03601b836151af565b9150617a0e826179cd565b602082019050919050565b60006020820190508181036000830152617a32816179f6565b9050919050565b6000608082019050617a4e6000830187615b6b565b617a5b60208301866165c1565b617a686040830185615b6b565b617a756060830184615b6b565b95945050505050565b7f45434453413a20696e76616c6964207369676e61747572650000000000000000600082015250565b6000617ab46018836151af565b9150617abf82617a7e565b602082019050919050565b60006020820190508181036000830152617ae381617aa7565b9050919050565b7f45434453413a20696e76616c6964207369676e6174757265206c656e67746800600082015250565b6000617b20601f836151af565b9150617b2b82617aea565b602082019050919050565b60006020820190508181036000830152617b4f81617b13565b9050919050565b7f45434453413a20696e76616c6964207369676e6174757265202773272076616c60008201527f7565000000000000000000000000000000000000000000000000000000000000602082015250565b6000617bb26022836151af565b9150617bbd82617b56565b604082019050919050565b60006020820190508181036000830152617be181617ba5565b9050919050565b7f476f7665726e6f72566f74696e6753696d706c653a20766f746520616c72656160008201527f6479206361737400000000000000000000000000000000000000000000000000602082015250565b6000617c446027836151af565b9150617c4f82617be8565b604082019050919050565b60006020820190508181036000830152617c7381617c37565b9050919050565b7f476f7665726e6f72566f74696e6753696d706c653a20696e76616c696420766160008201527f6c756520666f7220656e756d20566f7465547970650000000000000000000000602082015250565b6000617cd66035836151af565b9150617ce182617c7a565b604082019050919050565b60006020820190508181036000830152617d0581617cc9565b9050919050565b7f476f7665726e6f723a20756e6b6e6f776e2070726f706f73616c206964000000600082015250565b6000617d42601d836151af565b9150617d4d82617d0c565b602082019050919050565b60006020820190508181036000830152617d7181617d35565b9050919050565b7f53616665436173743a2076616c756520646f65736e27742066697420696e203660008201527f3420626974730000000000000000000000000000000000000000000000000000602082015250565b6000617dd46026836151af565b9150617ddf82617d78565b604082019050919050565b60006020820190508181036000830152617e0381617dc7565b9050919050565b600060a082019050617e1f6000830188615b6b565b617e2c6020830187615b6b565b617e396040830186615b6b565b617e466060830185615305565b617e536080830184615746565b9695505050505050565b7f476f7665726e6f723a2070726f706f73616c206e6f7420616374697665000000600082015250565b6000617e93601d836151af565b9150617e9e82617e5d565b602082019050919050565b60006020820190508181036000830152617ec281617e86565b905091905056fe476f7665726e6f723a2072656c617920726576657274656420776974686f7574206d657373616765a2646970667358221220f3cae18df3e2b63a7caae77104422bb0aba9cedd7d9c8536aa902645dac4aa9364736f6c63430008090033",
  "devdoc": {
    "errors": {
      "Empty()": [
        {
          "details": "An operation (e.g. {front}) couldn't be completed due to the queue being empty."
        }
      ]
    },
    "kind": "dev",
    "methods": {
      "CLOCK_MODE()": {
        "details": "Machine-readable description of the clock as specified in EIP-6372."
      },
      "COUNTING_MODE()": {
        "details": "See {IGovernor-COUNTING_MODE}."
      },
      "cancel(address[],uint256[],bytes[],bytes32)": {
        "details": "See {IGovernor-cancel}."
      },
      "castVote(uint256,uint8)": {
        "details": "See {IGovernor-castVote}."
      },
      "castVoteBySig(uint256,uint8,uint8,bytes32,bytes32)": {
        "details": "See {IGovernor-castVoteBySig}."
      },
      "castVoteWithReason(uint256,uint8,string)": {
        "details": "See {IGovernor-castVoteWithReason}."
      },
      "castVoteWithReasonAndParams(uint256,uint8,string,bytes)": {
        "details": "See {IGovernor-castVoteWithReasonAndParams}."
      },
      "castVoteWithReasonAndParamsBySig(uint256,uint8,string,bytes,uint8,bytes32,bytes32)": {
        "details": "See {IGovernor-castVoteWithReasonAndParamsBySig}."
      },
      "clock()": {
        "details": "Clock (as specified in EIP-6372) is set to match the token's clock. Fallback to block numbers if the token does not implement EIP-6372."
      },
      "eip712Domain()": {
        "details": "See {EIP-5267}. _Available since v4.9._"
      },
      "execute(address[],uint256[],bytes[],bytes32)": {
        "details": "See {IGovernor-execute}."
      },
      "getVotes(address,uint256)": {
        "details": "See {IGovernor-getVotes}."
      },
      "getVotesWithParams(address,uint256,bytes)": {
        "details": "See {IGovernor-getVotesWithParams}."
      },
      "hasVoted(uint256,address)": {
        "details": "See {IGovernor-hasVoted}."
      },
      "hashProposal(address[],uint256[],bytes[],bytes32)": {
        "details": "See {IGovernor-hashProposal}. The proposal id is produced by hashing the ABI encoded `targets` array, the `values` array, the `calldatas` array and the descriptionHash (bytes32 which itself is the keccak256 hash of the description string). This proposal id can be produced from the proposal data which is part of the {ProposalCreated} event. It can even be computed in advance, before the proposal is submitted. Note that the chainId and the governor address are not part of the proposal id computation. Consequently, the same proposal (with same operation and same description) will have the same id if submitted on multiple governors across multiple networks. This also means that in order to execute the same operation twice (on the same governor) the proposer will have to change the description in order to avoid proposal id conflicts."
      },
      "name()": {
        "details": "See {IGovernor-name}."
      },
      "onERC1155BatchReceived(address,address,uint256[],uint256[],bytes)": {
        "details": "See {IERC1155Receiver-onERC1155BatchReceived}."
      },
      "onERC1155Received(address,address,uint256,uint256,bytes)": {
        "details": "See {IERC1155Receiver-onERC1155Received}."
      },
      "onERC721Received(address,address,uint256,bytes)": {
        "details": "See {IERC721Receiver-onERC721Received}."
      },
      "proposalDeadline(uint256)": {
        "details": "See {IGovernor-proposalDeadline}."
      },
      "proposalEta(uint256)": {
        "details": "Public accessor to check the eta of a queued proposal"
      },
      "proposalProposer(uint256)": {
        "details": "Returns the account that created a given proposal."
      },
      "proposalSnapshot(uint256)": {
        "details": "See {IGovernor-proposalSnapshot}."
      },
      "proposalVotes(uint256)": {
        "details": "Accessor to the internal vote counts."
      },
      "queue(address[],uint256[],bytes[],bytes32)": {
        "details": "Function to queue a proposal to the timelock."
      },
      "quorumDenominator()": {
        "details": "Returns the quorum denominator. Defaults to 100, but may be overridden."
      },
      "quorumNumerator()": {
        "details": "Returns the current quorum numerator. See {quorumDenominator}."
      },
      "quorumNumerator(uint256)": {
        "details": "Returns the quorum numerator at a specific timepoint. See {quorumDenominator}."
      },
      "relay(address,uint256,bytes)": {
        "details": "Relays a transaction or function call to an arbitrary target. In cases where the governance executor is some contract other than the governor itself, like when using a timelock, this function can be invoked in a governance proposal to recover tokens or Ether that was sent to the governor contract by mistake. Note that if the executor is simply the governor itself, use of `relay` is redundant."
      },
      "setProposalThreshold(uint256)": {
        "details": "Update the proposal threshold. This operation can only be performed through a governance proposal. Emits a {ProposalThresholdSet} event."
      },
      "setVotingDelay(uint256)": {
        "details": "Update the voting delay. This operation can only be performed through a governance proposal. Emits a {VotingDelaySet} event."
      },
      "setVotingPeriod(uint256)": {
        "details": "Update the voting period. This operation can only be performed through a governance proposal. Emits a {VotingPeriodSet} event."
      },
      "timelock()": {
        "details": "Public accessor to check the address of the timelock"
      },
      "updateQuorumNumerator(uint256)": {
        "details": "Changes the quorum numerator. Emits a {QuorumNumeratorUpdated} event. Requirements: - Must be called through a governance proposal. - New numerator must be smaller or equal to the denominator."
      },
      "updateTimelock(address)": {
        "details": "Public endpoint to update the underlying timelock instance. Restricted to the timelock itself, so updates must be proposed, scheduled, and executed through governance proposals. CAUTION: It is not recommended to change the timelock while there are other queued governance proposals."
      },
      "version()": {
        "details": "See {IGovernor-version}."
      }
    },
    "version": 1
  },
  "userdoc": {
    "kind": "user",
    "methods": {},
    "version": 1
  },
  "storageLayout": {
    "storage": [
      {
        "astId": 9244,
        "contract": "contracts/governance_standard/PamContract.sol:PamContract",
        "label": "_nameFallback",
        "offset": 0,
        "slot": "0",
        "type": "t_string_storage"
      },
      {
        "astId": 9246,
        "contract": "contracts/governance_standard/PamContract.sol:PamContract",
        "label": "_versionFallback",
        "offset": 0,
        "slot": "1",
        "type": "t_string_storage"
      },
      {
        "astId": 557,
        "contract": "contracts/governance_standard/PamContract.sol:PamContract",
        "label": "_name",
        "offset": 0,
        "slot": "2",
        "type": "t_string_storage"
      },
      {
        "astId": 563,
        "contract": "contracts/governance_standard/PamContract.sol:PamContract",
        "label": "_proposals",
        "offset": 0,
        "slot": "3",
        "type": "t_mapping(t_uint256,t_struct(ProposalCore)555_storage)"
      },
      {
        "astId": 566,
        "contract": "contracts/governance_standard/PamContract.sol:PamContract",
        "label": "_governanceCall",
        "offset": 0,
        "slot": "4",
        "type": "t_struct(Bytes32Deque)11982_storage"
      },
      {
        "astId": 3602,
        "contract": "contracts/governance_standard/PamContract.sol:PamContract",
        "label": "_votingDelay",
        "offset": 0,
        "slot": "6",
        "type": "t_uint256"
      },
      {
        "astId": 3604,
        "contract": "contracts/governance_standard/PamContract.sol:PamContract",
        "label": "_votingPeriod",
        "offset": 0,
        "slot": "7",
        "type": "t_uint256"
      },
      {
        "astId": 3606,
        "contract": "contracts/governance_standard/PamContract.sol:PamContract",
        "label": "_proposalThreshold",
        "offset": 0,
        "slot": "8",
        "type": "t_uint256"
      },
      {
        "astId": 3394,
        "contract": "contracts/governance_standard/PamContract.sol:PamContract",
        "label": "_proposalVotes",
        "offset": 0,
        "slot": "9",
        "type": "t_mapping(t_uint256,t_struct(ProposalVote)3389_storage)"
      },
      {
        "astId": 4260,
        "contract": "contracts/governance_standard/PamContract.sol:PamContract",
        "label": "_quorumNumerator",
        "offset": 0,
        "slot": "10",
        "type": "t_uint256"
      },
      {
        "astId": 4264,
        "contract": "contracts/governance_standard/PamContract.sol:PamContract",
        "label": "_quorumNumeratorHistory",
        "offset": 0,
        "slot": "11",
        "type": "t_struct(Trace224)7194_storage"
      },
      {
        "astId": 3785,
        "contract": "contracts/governance_standard/PamContract.sol:PamContract",
        "label": "_timelock",
        "offset": 0,
        "slot": "12",
        "type": "t_contract(TimelockController)3368"
      },
      {
        "astId": 3789,
        "contract": "contracts/governance_standard/PamContract.sol:PamContract",
        "label": "_timelockIds",
        "offset": 0,
        "slot": "13",
        "type": "t_mapping(t_uint256,t_bytes32)"
      }
    ],
    "types": {
      "t_address": {
        "encoding": "inplace",
        "label": "address",
        "numberOfBytes": "20"
      },
      "t_array(t_struct(Checkpoint224)7199_storage)dyn_storage": {
        "base": "t_struct(Checkpoint224)7199_storage",
        "encoding": "dynamic_array",
        "label": "struct Checkpoints.Checkpoint224[]",
        "numberOfBytes": "32"
      },
      "t_bool": {
        "encoding": "inplace",
        "label": "bool",
        "numberOfBytes": "1"
      },
      "t_bytes24": {
        "encoding": "inplace",
        "label": "bytes24",
        "numberOfBytes": "24"
      },
      "t_bytes32": {
        "encoding": "inplace",
        "label": "bytes32",
        "numberOfBytes": "32"
      },
      "t_bytes4": {
        "encoding": "inplace",
        "label": "bytes4",
        "numberOfBytes": "4"
      },
      "t_contract(TimelockController)3368": {
        "encoding": "inplace",
        "label": "contract TimelockController",
        "numberOfBytes": "20"
      },
      "t_int128": {
        "encoding": "inplace",
        "label": "int128",
        "numberOfBytes": "16"
      },
      "t_mapping(t_address,t_bool)": {
        "encoding": "mapping",
        "key": "t_address",
        "label": "mapping(address => bool)",
        "numberOfBytes": "32",
        "value": "t_bool"
      },
      "t_mapping(t_int128,t_bytes32)": {
        "encoding": "mapping",
        "key": "t_int128",
        "label": "mapping(int128 => bytes32)",
        "numberOfBytes": "32",
        "value": "t_bytes32"
      },
      "t_mapping(t_uint256,t_bytes32)": {
        "encoding": "mapping",
        "key": "t_uint256",
        "label": "mapping(uint256 => bytes32)",
        "numberOfBytes": "32",
        "value": "t_bytes32"
      },
      "t_mapping(t_uint256,t_struct(ProposalCore)555_storage)": {
        "encoding": "mapping",
        "key": "t_uint256",
        "label": "mapping(uint256 => struct Governor.ProposalCore)",
        "numberOfBytes": "32",
        "value": "t_struct(ProposalCore)555_storage"
      },
      "t_mapping(t_uint256,t_struct(ProposalVote)3389_storage)": {
        "encoding": "mapping",
        "key": "t_uint256",
        "label": "mapping(uint256 => struct GovernorCountingSimple.ProposalVote)",
        "numberOfBytes": "32",
        "value": "t_struct(ProposalVote)3389_storage"
      },
      "t_string_storage": {
        "encoding": "bytes",
        "label": "string",
        "numberOfBytes": "32"
      },
      "t_struct(Bytes32Deque)11982_storage": {
        "encoding": "inplace",
        "label": "struct DoubleEndedQueue.Bytes32Deque",
        "members": [
          {
            "astId": 11975,
            "contract": "contracts/governance_standard/PamContract.sol:PamContract",
            "label": "_begin",
            "offset": 0,
            "slot": "0",
            "type": "t_int128"
          },
          {
            "astId": 11977,
            "contract": "contracts/governance_standard/PamContract.sol:PamContract",
            "label": "_end",
            "offset": 16,
            "slot": "0",
            "type": "t_int128"
          },
          {
            "astId": 11981,
            "contract": "contracts/governance_standard/PamContract.sol:PamContract",
            "label": "_data",
            "offset": 0,
            "slot": "1",
            "type": "t_mapping(t_int128,t_bytes32)"
          }
        ],
        "numberOfBytes": "64"
      },
      "t_struct(Checkpoint224)7199_storage": {
        "encoding": "inplace",
        "label": "struct Checkpoints.Checkpoint224",
        "members": [
          {
            "astId": 7196,
            "contract": "contracts/governance_standard/PamContract.sol:PamContract",
            "label": "_key",
            "offset": 0,
            "slot": "0",
            "type": "t_uint32"
          },
          {
            "astId": 7198,
            "contract": "contracts/governance_standard/PamContract.sol:PamContract",
            "label": "_value",
            "offset": 4,
            "slot": "0",
            "type": "t_uint224"
          }
        ],
        "numberOfBytes": "32"
      },
      "t_struct(ProposalCore)555_storage": {
        "encoding": "inplace",
        "label": "struct Governor.ProposalCore",
        "members": [
          {
            "astId": 542,
            "contract": "contracts/governance_standard/PamContract.sol:PamContract",
            "label": "voteStart",
            "offset": 0,
            "slot": "0",
            "type": "t_uint64"
          },
          {
            "astId": 544,
            "contract": "contracts/governance_standard/PamContract.sol:PamContract",
            "label": "proposer",
            "offset": 8,
            "slot": "0",
            "type": "t_address"
          },
          {
            "astId": 546,
            "contract": "contracts/governance_standard/PamContract.sol:PamContract",
            "label": "__gap_unused0",
            "offset": 28,
            "slot": "0",
            "type": "t_bytes4"
          },
          {
            "astId": 548,
            "contract": "contracts/governance_standard/PamContract.sol:PamContract",
            "label": "voteEnd",
            "offset": 0,
            "slot": "1",
            "type": "t_uint64"
          },
          {
            "astId": 550,
            "contract": "contracts/governance_standard/PamContract.sol:PamContract",
            "label": "__gap_unused1",
            "offset": 8,
            "slot": "1",
            "type": "t_bytes24"
          },
          {
            "astId": 552,
            "contract": "contracts/governance_standard/PamContract.sol:PamContract",
            "label": "executed",
            "offset": 0,
            "slot": "2",
            "type": "t_bool"
          },
          {
            "astId": 554,
            "contract": "contracts/governance_standard/PamContract.sol:PamContract",
            "label": "canceled",
            "offset": 1,
            "slot": "2",
            "type": "t_bool"
          }
        ],
        "numberOfBytes": "96"
      },
      "t_struct(ProposalVote)3389_storage": {
        "encoding": "inplace",
        "label": "struct GovernorCountingSimple.ProposalVote",
        "members": [
          {
            "astId": 3380,
            "contract": "contracts/governance_standard/PamContract.sol:PamContract",
            "label": "againstVotes",
            "offset": 0,
            "slot": "0",
            "type": "t_uint256"
          },
          {
            "astId": 3382,
            "contract": "contracts/governance_standard/PamContract.sol:PamContract",
            "label": "forVotes",
            "offset": 0,
            "slot": "1",
            "type": "t_uint256"
          },
          {
            "astId": 3384,
            "contract": "contracts/governance_standard/PamContract.sol:PamContract",
            "label": "abstainVotes",
            "offset": 0,
            "slot": "2",
            "type": "t_uint256"
          },
          {
            "astId": 3388,
            "contract": "contracts/governance_standard/PamContract.sol:PamContract",
            "label": "hasVoted",
            "offset": 0,
            "slot": "3",
            "type": "t_mapping(t_address,t_bool)"
          }
        ],
        "numberOfBytes": "128"
      },
      "t_struct(Trace224)7194_storage": {
        "encoding": "inplace",
        "label": "struct Checkpoints.Trace224",
        "members": [
          {
            "astId": 7193,
            "contract": "contracts/governance_standard/PamContract.sol:PamContract",
            "label": "_checkpoints",
            "offset": 0,
            "slot": "0",
            "type": "t_array(t_struct(Checkpoint224)7199_storage)dyn_storage"
          }
        ],
        "numberOfBytes": "32"
      },
      "t_uint224": {
        "encoding": "inplace",
        "label": "uint224",
        "numberOfBytes": "28"
      },
      "t_uint256": {
        "encoding": "inplace",
        "label": "uint256",
        "numberOfBytes": "32"
      },
      "t_uint32": {
        "encoding": "inplace",
        "label": "uint32",
        "numberOfBytes": "4"
      },
      "t_uint64": {
        "encoding": "inplace",
        "label": "uint64",
        "numberOfBytes": "8"
      }
    }
  }
}